:020000040802F0
:10000000307C002055EA02087DE602087FE60208FF
:1000100081E6020883E6020885E602080000000087
:1000200000000000000000000000000087E6020859
:1000300089E60208000000008BE602088DE602084F
:1000400089EA02088DEA020891EA020895EA0208A4
:1000500099EA02089DEA0208A1EA0208A5EA020854
:10006000A9EA0208ADEA0208B1EA0208B5EA020804
:10007000B9EA0208BDEA0208C1EA0208C5EA0208B4
:10008000C9EA0208CDEA0208D1EA0208D5EA020864
:10009000D9EA0208DDEA0208E1EA0208E5EA020814
:1000A000E9EA0208EDEA0208F1EA0208F5EA0208C4
:1000B000F9EA0208FDEA020801EB020805EB020872
:1000C00009EB02080DEB020811EB020815EB020820
:1000D00019EB020899E60208AFE60208C5E6020835
:1000E0001DEB020821EB020825EB020829EB0208B0
:1000F0002DEB020831EB020835EB020839EB020860
:100100003DEB020841EB020845EB020849EB02080F
:10011000DBE60208F1E602084DEB020851EB0208AB
:1001200055EB020859EB02085DEB020861EB02088F
:1001300065EB020869EB02086DEB020871EB02083F
:1001400075EB020879EB02087DEB020807E702086D
:1001500081EB020885EB020889EB020811E702082F
:100160008DEB020891EB020895EB020899EB02086F
:100170009DEB0208A1EB0208000000000000000057
:10018000A5EB0208A9EB02081FE702082DE7020809
:10019000ADEB0208B1EB020800000000B5EB02086D
:1001A0003BE7020849E702080000000000000000E9
:1001B000B9EB02080000000000000000BDEB0208DF
:1001C000C1EB0208C5EB0208C9EB0208CDEB02083F
:1001D000D1EB0208D5EB0208DFF8BC04B0F8B0049C
:1001E000002804D10020DFF8B014A1F8BA04DFF829
:1001F000A804B0F8BA04212804DB0020DFF8981422
:10020000A1F8BA04DFF894040168DFF88C04B0F8B0
:10021000BA04002816D10800C0B2C92812D1DFF8EC
:100220007804DFF87424B2F8BA24104480F88413F8
:10023000DFF86404B0F8BA04401CDFF85C24A2F8CC
:10024000BA0423E2DFF85004B0F8BA0401281ED142
:100250000800C0B2202807D00800C0B2132803D07D
:100260000800C0B2152812D1DFF82C04DFF82824CA
:10027000B2F8BA24104480F88413DFF81C04B0F8F4
:10028000BA04401CDFF81024A2F8BA04FEE1DFF83B
:10029000080490F88503132840F0F580DFF8F80390
:1002A00090F88403C92840F08F80DFF8EC03B0F8A1
:1002B000BA04022812D1DFF8E003DFF8DC23B2F839
:1002C000BA24104480F88413DFF8CC03B0F8BA04E1
:1002D000401CDFF8C423A2F8BA04D7E1DFF8B80362
:1002E000B0F8BA04032812D1DFF8AC03DFF8A82372
:1002F000B2F8BA24104480F88413DFF89C03B0F8F5
:10030000BA04401CDFF89023A2F8BA04BEE1DFF87B
:100310008803B0F8BA04042812D1DFF87C03DFF8B0
:100320007823B2F8BA24104480F88413DFF8680305
:10033000B0F8BA04401CDFF86023A2F8BA04A5E1C3
:10034000DFF85403B0F8BA04052812D1DFF84803E7
:10035000DFF84423B2F8BA24104480F88413DFF89D
:100360003803B0F8BA04401CDFF82C23A2F8BA0412
:100370008CE1DFF82403B0F8BA0406281EDBDFF8AE
:100380001803DFF81423B2F8BA24104480F8841359
:10039000DFF80403B0F8BA04401CDFF8FC22A2F82E
:1003A000BA04DFF8F402B0F8BA04082840F06E810D
:1003B0000120DFF8E42282F8C40467E10020DFF8BE
:1003C000D822A2F8BA0461E1B348B0F8BA0402280E
:1003D0000ED1B148B04AB2F8BA24104480F8841360
:1003E000AD48B0F8BA04401CAB4AA2F8BA044DE1DB
:1003F000A948B0F8BA0403280ED1A748A64AB2F813
:10040000BA24104480F88413A348B0F8BA04401CFE
:10041000A14AA2F8BA0439E19F48B0F8BA04042806
:100420000ED19D489C4AB2F8BA24104480F8841337
:100430009948B0F8BA04401C974AA2F8BA0425E1DA
:100440009548B0F8BA04052818D19348924AB2F8F2
:10045000BA24104480F884138F48B0F8BA04401CC2
:100460008D4AA2F8BA048C48B0F8BA04062840F0C5
:100470000D810120884A82F8C40407E10020864AE1
:10048000A2F8BA0402E1844890F88503152872D1D5
:100490008148B0F8BA0402280ED17F487E4AB2F8EB
:1004A000BA24104480F884137B48B0F8BA04401C86
:1004B000794AA2F8BA04E9E07748B0F8BA04032808
:1004C0000ED17548744AB2F8BA24104480F88413E7
:1004D0007148B0F8BA04401C6F4AA2F8BA04D5E0DB
:1004E0006D48B0F8BA0404280ED16B486A4AB2F8D5
:1004F000BA24104480F884136748B0F8BA04401C4A
:10050000654AA2F8BA04C1E06348B0F8BA04052805
:100510000ED16148604AB2F8BA24104480F88413BE
:100520005D48B0F8BA04401C5B4AA2F8BA04ADE0DA
:100530005948B0F8BA04062818DB5748564AB2F8AA
:10054000BA24104480F884135348B0F8BA04401C0D
:10055000514AA2F8BA045048B0F8BA04082840F04A
:10056000958001204C4A82F8C4048FE000204A4A5A
:10057000A2F8BA048AE0484890F88503202840F0A1
:1005800081804548B0F8BA0402280ED14248424A58
:10059000B2F8BA24104480F884133F48B0F8BA0483
:1005A000401C3D4AA2F8BA0470E03B48B0F8BA04D7
:1005B00003280ED13848384AB2F8BA24104480F8DB
:1005C00084133548B0F8BA04401C334AA2F8BA0480
:1005D0005CE03148B0F8BA0404280ED12E482E4A07
:1005E000B2F8BA24104480F884132B48B0F8BA0447
:1005F000401C294AA2F8BA0448E02748B0F8BA04D7
:1006000005280ED12448244AB2F8BA24104480F8B0
:1006100084132148B0F8BA04401C1F4AA2F8BA0457
:1006200034E01D48B0F8BA04062826DB1A4890F8D2
:100630008803194A92F8892352EA00221648A0F842
:10064000B8241548144AB2F8BA24104480F8841328
:100650001148B0F8BA04401C0F4AA2F8BA040E4878
:10066000B0F8BA040C4AB2F8B824083290420DD15E
:100670000120094A82F8C40408E00020064AA2F8D2
:10068000BA0403E00020044AA2F8BA040520024A92
:10069000A2F8B004704700002C00002004100140B4
:1006A0002DE9FE4F0400A2781202E1780A43ADF86A
:1006B0000820A1788DF80010E6789DF80010002938
:1006C00060D1DFF8701C0F00DFF86C1C88466421D5
:1006D0000D006521DFF8642C82F82C111321DFF85E
:1006E0005C2C82F82D11A178DFF8502C82F82E11A5
:1006F000E178DFF8482C82F82F11290089B2090A25
:10070000DFF8382C82F83011DFF8301C81F83151D5
:10071000DFF82CAC002189464846290080B289B216
:10072000884213D2388880B2000A8AF800001AF191
:1007300001003988017010F1010A3888A8F800001A
:10074000BF1C18F1020819F10209E5E7A91D89B2D9
:10075000DFF8F00B02F046FDADF80200BDF8020034
:1007600080B2000A8AF800001AF10100BDF80210F8
:100770000170401C15F10801DFF8C02BA2F8B61477
:1007800000F0D6BD9DF80010012940F01E846521BF
:10079000DFF8A82B82F82C111321DFF8A02B82F8A8
:1007A0002D11A178DFF8942B82F82E11E178DFF873
:1007B0008C2B82F82F110021DFF8802B82F830116A
:1007C0006221DFF8782B82F83111DFF874AB062153
:1007D000DFF8682BA2F8B6143000C0B2622880F2AD
:1007E000D4833000C0B200284AD006286CD00A2832
:1007F00000F08F800C2800F0AD80122800F0CF8030
:10080000222800F0F180322800F01481362800F010
:100810003781382800F05581392800F06C813A285A
:1008200000F083813E2800F0A681422800F0C981B3
:10083000462800F0EC814A2800F00F824E2800F094
:100840003282502800F05282522800F072825428DE
:1008500000F09282562800F0B282582800F0D2822E
:100860005A2800F0F2825C2800F012835E2800F023
:1008700032835F2800F04983602800F0608381E3C1
:1008800000208146484680B206280BDADFF8B80A15
:10089000494689B2405C8AF800001AF1010A19F150
:1008A0000109EFE7DFF8940AB0F8B604801DDFF81D
:1008B0008C1AA1F8B604B61D0622DFF8901ADFF8EC
:1008C000880A02F0EEFC87E700208146484680B2A5
:1008D00004280CDADFF8700A494689B208448079A6
:1008E0008AF800001AF1010A19F10109EEE7DFF8B0
:1008F0004C0AB0F8B604001DDFF8401AA1F8B6049F
:10090000361D0422DFF8481ADFF8480A02F0C9FC55
:1009100062E7DFF8340A408980B2000A8AF80000F2
:100920001AF10100DFF8201A4989017010F1010A5B
:10093000DFF8080AB0F8B604801CDFF8001AA1F846
:10094000B604B61C0222DFF8101ADFF8100A02F013
:10095000A8FC41E700208146484680B206280CDA10
:10096000DFF8E409494689B20844007B8AF80000B0
:100970001AF1010A19F10109EEE7DFF8C009B0F830
:10098000B604801DDFF8B419A1F8B604B61D06221E
:10099000DFF8CC19DFF8CC0902F083FC1CE700205B
:1009A0008146484680B210280CDADFF89C09494697
:1009B00089B20844807C8AF800001AF1010A19F112
:1009C0000109EEE7DFF87409B0F8B6041030DFF87B
:1009D0006C19A1F8B60410361022DFF88C19DFF874
:1009E0008C0902F05EFCF7E600208146484680B2A2
:1009F00010280DDADFF85009494689B2084490F80A
:100A000022008AF800001AF1010A19F10109EDE744
:100A1000DFF82809B0F8B6041030DFF82019A1F883
:100A2000B60410361022DFF84819DFF8480902F042
:100A300038FCD1E600208146484680B204280DDA11
:100A4000DFF80409494689B2084490F832008AF870
:100A500000001AF1010A19F10109EDE7DFF8DC08DD
:100A6000B0F8B604001DDFF8D418A1F8B604361D9E
:100A70000422DFF80419DFF8040902F012FCABE6E7
:100A8000DFF8C408C08E80B2000A8AF800001AF1AC
:100A90000100DFF8B418C98E017010F1010ADFF807
:100AA0009C08B0F8B604801CDFF89018A1F8B604D2
:100AB000B61C0222DFF8C818DFF8C80802F0F1FB04
:100AC0008AE6DFF8840890F838008AF800001AF106
:100AD000010ADFF86808B0F8B604401CDFF85C18BB
:100AE000A1F8B604761C0122DFF89C18DFF89C08F8
:100AF00002F0D7FB70E6DFF8500890F839008AF86A
:100B000000001AF1010ADFF83408B0F8B604401CFE
:100B1000DFF82818A1F8B604761C0122DFF8701857
:100B2000DFF8700802F0BDFB56E60020814648461B
:100B300080B204280DDADFF81008494689B208446B
:100B400090F83A008AF800001AF1010A19F1010937
:100B5000EDE7DFF8E807B0F8B604001DDFF8DC17B2
:100B6000A1F8B604361D0422DFF82C18DFF82C0893
:100B700002F097FB30E600208146484680B2042808
:100B80000DDADFF8C407494689B2084490F83E0000
:100B90008AF800001AF1010A19F10109EDE7DFF8FE
:100BA0009C07B0F8B604001DDFF89017A1F8B60452
:100BB000361D0422DFF8E817DFF8E80702F071FBC2
:100BC0000AE600208146484680B204280DDADFF8A4
:100BD0007807494689B2084490F842008AF8000034
:100BE0001AF1010A19F10109EDE7DFF85007B0F831
:100BF000B604001DDFF84417A1F8B604361D042220
:100C0000DFF8A417DFF8A40702F04BFBE4E50020AF
:100C10008146484680B204280DDADFF82C074946A1
:100C200089B2084490F846008AF800001AF1010AD7
:100C300019F10109EDE7DFF80407B0F8B604001D6B
:100C4000DFF8F816A1F8B604361D0422DFF86017A5
:100C5000DFF8600702F025FBBEE50020814648462C
:100C600080B204280DDADFF8E006494689B208446C
:100C700090F84A008AF800001AF1010A19F10109F6
:100C8000EDE7DFF8B806B0F8B604001DDFF8AC16E3
:100C9000A1F8B604361D0422DFF81C17DFF81C0784
:100CA00002F0FFFA98E5DFF8A006B0F84E0080B237
:100CB000000A8AF800001AF10100DFF88C16B1F87A
:100CC0004E10017010F1010ADFF87006B0F8B6049A
:100CD000801CDFF86816A1F8B604B61C0222DFF803
:100CE000E016DFF8E00602F0DCFA75E5DFF85806FA
:100CF000B0F8500080B2000A8AF800001AF1010032
:100D0000DFF84416B1F85010017010F1010ADFF855
:100D10002C06B0F8B604801CDFF82016A1F8B60443
:100D2000B61C0222DFF8A016DFF8A00602F0B9FA1E
:100D300052E5DFF81406B0F8520080B2000A8AF8D3
:100D400000001AF10100DFF80016B1F8521001702E
:100D500010F1010ADFF8E405B0F8B604801CDFF8F2
:100D6000DC15A1F8B604B61C0222DFF86416DFF821
:100D7000640602F096FA2FE5DFF8CC05B0F85400CF
:100D800080B2000A8AF800001AF10100DFF8B815F5
:100D9000B1F85410017010F1010ADFF8A005B0F8A5
:100DA000B604801CDFF89415A1F8B604B61C022224
:100DB000DFF82416DFF8240602F073FA0CE5DFF8FA
:100DC0008805B0F8560080B2000A8AF800001AF1CF
:100DD0000100DFF87415B1F85610017010F1010A26
:100DE000DFF85805B0F8B604801CDFF85015A1F8FC
:100DF000B604B61C0222DFF8E815DFF8E80502F0B9
:100E000050FAE9E4DFF84005B0F8580080B2000A73
:100E10008AF800001AF10100DFF82C15B1F858101B
:100E2000017010F1010ADFF81405B0F8B604801C57
:100E3000DFF80815A1F8B604B61C0222DFF8A815E1
:100E4000DFF8A80502F02DFAC6E4DFF8FC04B0F8DC
:100E50005A0080B2000A8AF800001AF10100DFF897
:100E6000E814B1F85A10017010F1010ADFF8CC044F
:100E7000B0F8B604801CDFF8C414A1F8B604B61CA0
:100E80000222DFF86C15DFF86C0502F00AFAA3E421
:100E9000DFF8B404B0F85C0080B2000A8AF8000001
:100EA0001AF10100DFF8A014B1F85C10017010F124
:100EB000010ADFF88804B0F8B604801CDFF87C145F
:100EC000A1F8B604B61C0222DFF82C15DFF82C05B9
:100ED00002F0E7F980E4DFF8700490F85E008AF829
:100EE00000001AF1010ADFF85404B0F8B604401CFF
:100EF000DFF84814A1F8B604761C0122DFF80015CB
:100F0000DFF8000502F0CDF966E4DFF83C0490F864
:100F10005F008AF800001AF1010ADFF82004B0F837
:100F2000B604401CDFF81414A1F8B604761C0122A4
:100F3000DFF8D414DFF8D40402F0B3F94CE4DFF89E
:100F40000804B0F8600080B2000A8AF800001AF1C4
:100F50000100DFF8F413B1F86010017010F1010A1C
:100F6000DFF8D803B0F8B604801CDFF8D013A1F87E
:100F7000B604B61C0222DFF89814DFF8980402F0D9
:100F800090F929E46220060026E4DFF8B003B0F807
:100F9000B614DFF8B00302F025F9ADF80200BDF891
:100FA000020080B2000A8AF800001AF10100BDF8C0
:100FB00002100170401CDFF88413B1F8B614891CCC
:100FC000DFF87823A2F8B614B2E19DF800101129D9
:100FD0006BDB9DF800101D2967DADFF83C249DF8D3
:100FE0000030A6214B4302EB0301A1F606310F00AE
:100FF000DFF828249DF80030A6214B4302EB0301C3
:10100000A1F606318846A6210D006521CB4A82F85B
:101010002C111321C94A82F82D11A178C74A82F8F0
:101020002E11E178C54A82F82F11290089B2090AE8
:10103000C24A82F83011C14981F83151DFF800A36A
:10104000002189464846290080B289B2884213D2DD
:10105000388880B2000A8AF800001AF10100398845
:10106000017010F1010A3888A8F80000BF1C18F1BF
:10107000020819F10209E5E7A91D89B2B14802F099
:10108000B1F8ADF80200BDF8020080B2000A8AF89B
:1010900000001AF10100BDF802100170401C15F1AA
:1010A0000801A64AA2F8B61442E19DF800103129C1
:1010B00067DB9DF800103D2963DAD94A9DF80030BE
:1010C00048214B4302EB0301A1F6C8518B46D54A98
:1010D0009DF8003048214B4302EB0301A1F6C851B3
:1010E000019148210D006521944A82F82C111321A9
:1010F000924A82F82D11A178904A82F82E11E17857
:101100008E4A82F82F11290089B2090A8B4A82F887
:1011100030118A4981F83151DFF824A20021894633
:101120004846290080B289B2884211D29BF800005B
:101130008AF800001AF1010A9BF800000199087072
:101140001BF1010B0198401C019019F10109E7E71F
:10115000A91D89B27B4802F045F8ADF80200BDF840
:10116000020080B2000A8AF800001AF10100BDF8FE
:1011700002100170401C15F10801704AA2F8B61463
:10118000D6E09DF80010E02969DB9DF80010F029F9
:1011900065DAA54A9DF8003006214B4302EB0301B6
:1011A000B1F5A8610F00A14A9DF8003006214B431C
:1011B00002EB0301B1F5A861884606210D00652107
:1011C0005E4A82F82C1113215C4A82F82D11A17815
:1011D0005A4A82F82E11E178584A82F82F112900D4
:1011E00089B2090A554A82F83011544981F83151BF
:1011F000DFF84CA1002189464846290080B289B217
:10120000884213D2388880B2000A8AF800001AF1A6
:1012100001003988017010F1010A3888A8F800002F
:10122000BF1C18F1020819F10209E5E7A91D89B2EE
:10123000444801F0D7FFADF80200BDF8020080B2CB
:10124000000A8AF800001AF10100BDF802100170CE
:10125000401C15F10801394AA2F8B61468E09DF85F
:101260000010F02964DB724A9DF8003022214B43C4
:1012700002EB0301B1F5FF510F006E4A9DF80030FB
:1012800022214B4302EB0301B1F5FF518846222195
:101290000D006521294A82F82C111321274A82F872
:1012A0002D11A178254A82F82E11E178234A82F87F
:1012B0002F11290089B2090A204A82F830111F49EA
:1012C00081F83151DFF878A000218946484629008D
:1012D00080B289B2884213D2388880B2000A8AF874
:1012E00000001AF101003988017010F1010A3888F4
:1012F000A8F80000BF1C18F1020819F10209E5E77F
:10130000A91D89B20F4801F06DFFADF80200BDF8CC
:10131000020080B2000A8AF800001AF10100BDF84C
:1013200002100170401C15F10801044AA2F8B6141D
:10133000BDE8F78F00640020646400202C000020CA
:101340005E010020580100202C65002090650020DF
:1013500096650020326500209A65002036650020E1
:101360009C65002038650020A26500203E650020B5
:10137000B26500204E650020C26500205E65002039
:10138000C665002062650020C865002064650020F5
:10139000C965002065650020CA65002066650020DB
:1013A000CE6500206A650020D26500206E650020B1
:1013B000D665002072650020DA6500207665002081
:1013C000DE6500207A650020E06500207C65002055
:1013D000E26500207E650020E46500208065002035
:1013E000E665002082650020E86500208465002015
:1013F000EA65002086650020EC65002088650020F5
:10140000EE6500208A650020EF6500208B650020D6
:10141000F06500208C65002060300020C03A00207C
:1014200020450020A049002058660020B866002012
:10143000405B0020605D00202DE9F14F82B00299F1
:1014400091F802905FEA09290299C97851EA0909DD
:1014500002998D78029991F803A02900C9B2002958
:1014600040F0B180DFF8881D0F00DFF8881D884646
:101470006421ADF802106521DFF87C2D82F82C1173
:101480001521DFF8742D82F82D11DFF8706D002121
:10149000DFF8642DA2F8B6140021894600218A469F
:1014A00000218B465846BDF8021080B2884231D2E6
:1014B0005046C0B2BDF8021080B288422AD23888A5
:1014C000B8F80010884218D0484680B2000A307040
:1014D000701C80F80090401C398889B2090A01709C
:1014E000401C39880170461CDFF80C0DB0F8B604BA
:1014F000001DDFF8041DA1F8B6043888A8F8000024
:10150000BF1C18F1020819F102091AF1020A1BF1B5
:10151000020BC7E7DFF8E00CB0F8B604002818D1DA
:10152000DFF8CC0C07003570701C00210170401CE6
:10153000398889B2090A0170401C39880170461C3B
:10154000DFF8B40CB0F8B604001DDFF8AC1CA1F84D
:10155000B604DFF8A40CB0F8B60480B2000ADFF8D5
:10156000981C81F82E01DFF8900CB0F8B604DFF873
:10157000881C81F82F01DFF8800CB0F8B604001D3C
:10158000DFF8741CA1F8B604DFF86C0CB0F8B614E0
:10159000DFF8480D01F026FEADF80000BDF80000B0
:1015A00080B2000A3070701CBDF800100170401C41
:1015B000DFF8441CB1F8B614891CDFF83C2CA2F803
:1015C000B61401F094B92900C9B2012940F040874E
:1015D0006221ADF802106521DFF81C2C82F82C1175
:1015E0001521DFF8142C82F82D11DFF8106C002182
:1015F000DFF8042CA2F8B6144FF48071894600215C
:101600008A465046C0B2622880F2B4865046C0B2C4
:1016100000284CD0062800F08A800A2800F0C880F4
:101620000C2800F00181122800F03F81222800F0F0
:101630007D81322800F0BC81362800F0FB813828FB
:1016400000F03482392800F067823A2800F09A824C
:101650003E2800F0D982422800F01883462800F086
:1016600057834A2800F096834E2800F0D6835028EE
:1016700000F01284522800F04B84542800F0848437
:10168000562800F0BB84582800F0F2845A2800F055
:1016900029855C2800F060855E2800F097855F282A
:1016A00000F0D385602800F0078600F05FBE0622B8
:1016B000DFF82C1CDFF82C0C01F0FEFD04002000EC
:1016C000C0B2002804D119F106091AF1060A98E7F8
:1016D000484680B2000A3070701C80F80090461CAA
:1016E000DFF8140BB0F8B604801CDFF80C1BA1F86F
:1016F000B60400208346584680B2062809DADFF88F
:10170000E40B594689B2405C3070761C1BF1010B2A
:10171000F1E7DFF8E40AB0F8B604801DDFF8D81A64
:10172000A1F8B60419F106091AF1060A69E70422BC
:10173000DFF8B41BDFF8B40B01F0BEFD040020009D
:10174000C0B2002804D119F104091AF1040A58E7BB
:10175000484680B2000A3070701C80F80090461C29
:10176000DFF8940AB0F8B604801CDFF88C1AA1F8F0
:10177000B60400208346584680B204280ADADFF80F
:10178000640B594689B2084480793070761C1BF18D
:10179000010BF0E7DFF8600AB0F8B604001DDFF8CF
:1017A000581AA1F8B60419F104091AF1040A28E735
:1017B0000222DFF83C1BDFF83C0B01F07DFD04004A
:1017C0002000C0B2002804D119F102091AF1020A5E
:1017D00017E7484680B2000A3070701C80F800900D
:1017E000401CDFF8141AB1F8B614891CDFF8082A77
:1017F000A2F8B614DFF8EC1A498989B2090A017017
:10180000401CDFF8E01A49890170461CDFF8E8093E
:10181000B0F8B604801CDFF8E019A1F8B60419F19D
:1018200002091AF1020AECE60622DFF8CC1ADFF808
:10183000CC0A01F041FD04002000C0B2002804D110
:1018400019F106091AF1060ADBE6484680B2000AD9
:101850003070701C80F80090461CDFF89C09B0F8CE
:10186000B604801CDFF89019A1F8B6040020834666
:10187000584680B206280ADADFF8680A594689B263
:101880000844007B3070761C1BF1010BF0E7DFF899
:101890006809B0F8B604801DDFF85C19A1F8B60439
:1018A00019F106091AF1060AABE61022DFF8501A00
:1018B000DFF8500A01F000FD04002000C0B200284B
:1018C00004D119F110091AF1100A9AE6484680B2BB
:1018D000000A3070701C80F80090461CDFF8180970
:1018E000B0F8B604801CDFF81019A1F8B604002087
:1018F0008346584680B210280ADADFF8E8095946CC
:1019000089B20844807C3070761C1BF1010BF0E733
:10191000DFF8E408B0F8B6041030DFF8DC18A1F8FE
:10192000B60419F110091AF1100A6AE61022DFF85C
:10193000D819DFF8D80901F0BFFC04002000C0B2BC
:10194000002804D119F110091AF1100A59E6484685
:1019500080B2000A3070701C80F80090461CDFF8DE
:101960009808B0F8B604801CDFF88C18A1F8B6040B
:1019700000208346584680B210280BDADFF864094D
:10198000594689B2084490F822003070761C1BF149
:10199000010BEFE7DFF86008B0F8B6041030DFF8AD
:1019A0005818A1F8B60419F110091AF1100A28E61E
:1019B0000422DFF8B41DDFF8B40D01F07DFC040053
:1019C0002000C0B2002804D119F104091AF1040A58
:1019D00017E6484680B2000A3070701C80F800900C
:1019E000461CDFF81408B0F8B604801CDFF80818AD
:1019F000A1F8B60400208346584680B204280BDACA
:101A0000DFF8E008594689B2084490F83200307097
:101A1000761C1BF1010BEFE7DFF8DC07B0F8B6042A
:101A2000001DDFF8D417A1F8B60419F104091AF162
:101A3000040AE6E50222DFF8381DDFF8380D01F070
:101A40003BFC04002000C0B2002804D119F10209B7
:101A50001AF1020AD5E5484680B2000A3070701CBF
:101A600080F80090401CDFF89017B1F8B614891C7C
:101A7000DFF88427A2F8B614DFF86818C98E89B297
:101A8000090A0170401CDFF85C18C98E0170461C01
:101A9000DFF86407B0F8B604801CDFF85C17A1F823
:101AA000B60419F102091AF1020AAAE50122DFF8C7
:101AB000C81CDFF8C80C01F0FFFB04002000C0B216
:101AC000002804D119F101091AF1010A99E54846E3
:101AD00080B2000A3070701C80F80090401CDFF863
:101AE0001817B1F8B614891CDFF80C27A2F8B61441
:101AF000DFF8F01791F838100170461CDFF8F8068F
:101B0000B0F8B604401CDFF8F016A1F8B60419F1DD
:101B100001091AF1010A74E50122DFF8D81DDFF886
:101B2000D80D01F0C9FB04002000C0B2002804D188
:101B300019F101091AF1010A63E5484680B2000A69
:101B40003070701C80F80090401CDFF8AC16B1F8C3
:101B5000B614891CDFF8A026A2F8B614DFF88417A3
:101B600091F839100170461CDFF88C06B0F8B60405
:101B7000401CDFF88416A1F8B60419F101091AF126
:101B8000010A3EE50422DFF8741DDFF8740D01F050
:101B900093FB04002000C0B2002804D119F104090D
:101BA0001AF1040A2DE5484680B2000A3070701C14
:101BB00080F80090461CDFF84006B0F8B604801CA0
:101BC000DFF83416A1F8B60400208346584680B2E8
:101BD00004280BDADFF80C07594689B2084490F85C
:101BE0003A003070761C1BF1010BEFE7DFF80806B6
:101BF000B0F8B604001DDFF80016A1F8B60419F11C
:101C000004091AF1040AFCE40422DFF8F81CDFF8E6
:101C1000F80C01F051FB04002000C0B2002804D1F0
:101C200019F104091AF1040AEBE4484680B2000AEB
:101C30003070701C80F80090461CDFF8BC05B0F8CE
:101C4000B604801CDFF8B015A1F8B6040020834666
:101C5000584680B204280BDADFF88806594689B264
:101C6000084490F83E003070761C1BF1010BEFE742
:101C7000DFF88405B0F8B604001DDFF87C15A1F884
:101C8000B60419F104091AF1040ABAE40422DFF8CF
:101C90007C1CDFF87C0C01F00FFB04002000C0B2BC
:101CA000002804D119F104091AF1040AA9E44846EC
:101CB00080B2000A3070701C80F80090461CDFF87B
:101CC0003805B0F8B604801CDFF82C15A1F8B6046E
:101CD00000208346584680B204280BDADFF8040659
:101CE000594689B2084490F842003070761C1BF1C6
:101CF000010BEFE7DFF80005B0F8B604001DDFF8D0
:101D0000F814A1F8B60419F104091AF1040A78E4E8
:101D10000422DFF8001CDFF8000C01F0CDFA04000B
:101D20002000C0B2002804D119F104091AF1040AF4
:101D300067E4484680B2000A3070701C80F800905A
:101D4000461CDFF8B404B0F8B604801CDFF8A81411
:101D5000A1F8B60400208346584680B204280BDA66
:101D6000DFF88005594689B2084490F84600307083
:101D7000761C1BF1010BEFE7DFF87C04B0F8B6042A
:101D8000001DDFF87414A1F8B60419F104091AF162
:101D9000040A36E40422DFF8841BDFF8840B01F028
:101DA0008BFA04002000C0B2002804D119F1040904
:101DB0001AF1040A25E4484680B2000A3070701C0B
:101DC00080F80090461CDFF83004B0F8B604801CA0
:101DD000DFF82414A1F8B60400208346584680B2E8
:101DE00004280BDADFF8FC04594689B2084490F85D
:101DF0004A003070761C1BF1010BEFE7DFF8F803A7
:101E0000B0F8B604001DDFF8F013A1F8B60419F11C
:101E100004091AF1040AFFF7F4BB0222DFF8041BDD
:101E2000DFF8040B01F048FA04002000C0B20028DB
:101E300005D119F102091AF1020AFFF7E2BB48467F
:101E400080B2000A3070701C80F80090401CDFF8EF
:101E5000A813B1F8B614891CDFF89C23A2F8B614B5
:101E6000DFF88014B1F84E1089B2090A0170401CE5
:101E7000DFF87014B1F84E100170461CDFF87803DB
:101E8000B0F8B604801CDC49A1F8B60419F10209C7
:101E90001AF1020AFFF7B5BB0222DFF8901ADFF849
:101EA000900A01F009FA04002000C0B2002805D110
:101EB00019F102091AF1020AFFF7A3BB484680B2E2
:101EC000000A3070701C80F80090401CCA49B1F8BC
:101ED000B614891CC84AA2F8B614DFF80814B1F881
:101EE000501089B2090A0170401CDFF8F813B1F8EC
:101EF00050100170461CC048B0F8B604801CBE49A2
:101F0000A1F8B60419F102091AF1020AFFF779BB28
:101F10000222DFF8201ADFF8200A01F0CDF90400D0
:101F20002000C0B2002805D119F102091AF1020AF5
:101F3000FFF767BB484680B2000A3070701C80F81B
:101F40000090401CAC49B1F8B614891CAA4AA2F80A
:101F5000B614DFF89013B1F8521089B2090A017073
:101F6000401CDFF88013B1F852100170461CA248E3
:101F7000B0F8B604801CA049A1F8B60419F1020912
:101F80001AF1020AFFF73DBB0222DFF8B019DFF8B1
:101F9000B00901F091F904002000C0B2002805D179
:101FA00019F102091AF1020AFFF72BBB484680B269
:101FB000000A3070701C80F80090401C8E49B1F807
:101FC000B614891C8C4AA2F8B614C649B1F854104C
:101FD00089B2090A0170401CC249B1F8541001705D
:101FE000461C8548B0F8B604801C8349A1F8B604A5
:101FF00019F102091AF1020AFFF703BB0222DFF806
:102000004419DFF8440901F057F904002000C0B278
:10201000002805D119F102091AF1020AFFF7F1BAF5
:10202000484680B2000A3070701C80F80090401C56
:102030007149B1F8B614891C6F4AA2F8B614A949BF
:10204000B1F8561089B2090A0170401CA549B1F8CF
:1020500056100170461C6848B0F8B604801C6649EA
:10206000A1F8B60419F102091AF1020AFFF7C9BA78
:102070000222DFF8D818DFF8D80801F01DF90400B3
:102080002000C0B2002805D119F102091AF1020A94
:10209000FFF7B7BA484680B2000A3070701C80F86B
:1020A0000090401C5449B1F8B614891C524AA2F859
:1020B000B6148C49B1F8581089B2090A0170401C55
:1020C0008849B1F858100170461C4B48B0F8B60466
:1020D000801C4949A1F8B60419F102091AF1020A53
:1020E000FFF78FBA0222DFF86C18DFF86C0801F0F6
:1020F000E3F804002000C0B2002805D119F102095C
:102100001AF1020AFFF77DBA484680B2000A307021
:10211000701C80F80090401C3749B1F8B614891C37
:10212000354AA2F8B6146F49B1F85A1089B2090AB3
:102130000170401C6B49B1F85A100170461C2E48C2
:10214000B0F8B604801C2C49A1F8B60419F10209B4
:102150001AF1020AFFF755BA0222DFF80018DFF879
:10216000000801F0A9F804002000C0B2002805D141
:1021700019F102091AF1020AFFF743BA484680B280
:10218000000A3070701C80F80090401C1A49B1F8A9
:10219000B614891C184AA2F8B6145249B1F85C105A
:1021A00089B2090A0170401C4E49B1F85C100170F7
:1021B000461C1148B0F8B604801C0F49A1F8B604BB
:1021C00019F102091AF1020AFFF71BBA0122DFF81E
:1021D0009417DFF8940701F06FF804002000C0B2F4
:1021E00000280DD119F101091AF1010AFFF709BA06
:1021F00000640020646400202C0000205C010020AA
:10220000484680B2000A3070701C80F80090401C74
:10221000DFF85817B1F8B614891CDFF85027A2F878
:10222000B614304991F85E100170461CDFF83C0787
:10223000B0F8B604401CDFF83417A1F8B60419F161
:1022400001091AF1010AFFF7DCB90122DFF82017B2
:10225000DFF8200701F030F804002000C0B20028A9
:1022600005D119F101091AF1010AFFF7CAB9484667
:1022700080B2000A3070701C80F80090401CDFF8BB
:10228000EC16B1F8B614891CDFF8E026A2F8B614F3
:10229000144991F85F100170461CDFF8D006B0F8C1
:1022A000B604401CDFF8C416A1F8B60419F1010900
:1022B0001AF1010AFFF7A5B90222DFF8BC16DFF810
:1022C000BC0600F0F9FF04002000C0B200281FD1B6
:1022D00019F102091AF1020AFFF793B95801002017
:1022E000906500202C650020966500203265002056
:1022F0009A650020366500209C6500203865002026
:10230000A26500203E650020B26500204E650020D9
:10231000484680B2000A3070701C80F80090401C63
:10232000DFF84816B1F8B614891CDFF84026A2F889
:10233000B614DFF84C16B1F8601089B2090A0170C2
:10234000401CDFF83C16B1F860100170461CDFF845
:102350001C06B0F8B604801CDFF81016A1F8B6040D
:1023600019F102091AF1020AFFF74BB962208246FD
:10237000FFF747B9DFF8F405B0F8B60400282ED10E
:10238000DFF8FC0507003570701C00210170401C4F
:10239000DFF8EC1509780170401CDFF8E415497886
:1023A0000170401CDFF8D81589780170401CDFF8F7
:1023B000D015C9780170401CDFF8C4150979017087
:1023C000401CDFF8BC1549790170461CDFF89C05FC
:1023D000B0F8B6040830DFF89415A1F8B604DFF8B9
:1023E0008C05B0F8B60480B2000ADFF8801581F8D9
:1023F0002E01DFF87805B0F8B604DFF8701581F823
:102400002F01DFF86805B0F8B604001DDFF85C1591
:10241000A1F8B604DFF85405B0F8B614DFF8940C50
:1024200000F0E0FEADF80000BDF8000080B2000A48
:102430003070701CBDF800100170401CDFF82C15C6
:10244000B1F8B614891CDFF82425A2F8B6144EE2C0
:102450002900C9B21129C0F2C9802900C9B21D29B9
:1024600080F2C480DFF8502C2B00DBB2A6214B4356
:1024700002EB0301A1F606310F00DFF8402C2B0020
:10248000DBB2A6214B4302EB0301A1F606318846DD
:10249000A621ADF802106521DFF8D02482F82C11B6
:1024A0001521DFF8C82482F82D11DFF8146C002103
:1024B000DFF8B824A2F8B61400218B465846BDF8C0
:1024C000021080B2884231D25046C0B2BDF802102C
:1024D00080B288422AD23888B8F80010884218D0D2
:1024E000484680B2000A3070701C80F80090401C92
:1024F000398889B2090A0170401C39880170461C6C
:10250000DFF86804B0F8B604001DDFF86014A1F825
:10251000B6043888A8F80000BF1C18F1020819F1A9
:1025200002091AF1020A1BF1020BC7E7DFF83C04AB
:10253000B0F8B604002820D1DFF87C1B2A00D2B204
:10254000A620424301EB0200A0F6063007003570DA
:10255000701C00210170401C398889B2090A017081
:10256000401C39880170461CDFF80004B0F8B6043E
:10257000001DDFF8F813A1F8B604DFF8F003B0F897
:10258000B60480B2000ADFF8E41381F82E01DFF808
:10259000DC03B0F8B604DFF8D41381F82F01DFF8BC
:1025A000CC03B0F8B604001DDFF8C013A1F8B604E0
:1025B000DFF8B803B0F8B614DFF8F80A00F012FE3E
:1025C000ADF80000BDF8000080B2000A3070701C49
:1025D000BDF800100170401CDFF89013B1F8B6147C
:1025E000891CDFF88823A2F8B61480E12900C9B25B
:1025F000E029C0F2C5802900C9B2F02980F2C0806C
:10260000DFF8942B2B00DBB206214B4302EB0301D6
:10261000B1F5A8610F00DFF8842B2B00DBB2062197
:102620004B4302EB0301B1F5A86188460621ADF8E2
:1026300002106521CD4A82F82C111521CB4A82F86F
:102640002D11DFF87C6A0021C84AA2F8B6140021D7
:102650008B465846BDF8021080B288422FD25046B1
:10266000C0B2BDF8021080B2884228D23888B8F8CB
:102670000010884216D0484680B2000A3070701CA4
:1026800080F80090401C398889B2090A0170401C0A
:1026900039880170461CB548B0F8B604001DB3492E
:1026A000A1F8B6043888A8F80000BF1C18F1020889
:1026B00019F102091AF1020A1BF1020BC9E7AB4832
:1026C000B0F8B60400281ED1DFF8CC1A2A00D2B226
:1026D0000620424301EB0200B0F5A8600700357008
:1026E000701C00210170401C398889B2090A0170F0
:1026F000401C39880170461C9C48B0F8B604001D87
:102700009A49A1F8B6049948B0F8B60480B2000A14
:10271000964981F82E019548B0F8B604934981F89E
:102720002F019248B0F8B604001D9049A1F8B604F4
:102730008E48B0F8B614DFF87C0900F053FDADF810
:102740000000BDF8000080B2000A3070701CBDF8B7
:1027500000100170401C8549B1F8B614891C834AE9
:10276000A2F8B614C3E000BFC26500205E65002079
:10277000C665002062650020C865002064650020F1
:102780002900C9B2F029C0F2B280DFF8142A2B0068
:10279000DBB222214B4302EB0301B1F5FF510F00E5
:1027A000DFF8002A2B00DBB222214B4302EB0301AE
:1027B000B1F5FF5188462221ADF8021065216B4A20
:1027C00082F82C111521694A82F82D11DFF8F06882
:1027D0000021664AA2F8B61400218B465846BDF87F
:1027E000021080B288422FD25046C0B2BDF802100B
:1027F00080B2884228D23888B8F80010884216D0B3
:10280000484680B2000A3070701C80F80090401C6E
:10281000398889B2090A0170401C39880170461C48
:102820005248B0F8B604001D5049A1F8B6043888E3
:10283000A8F80000BF1C18F1020819F102091AF1EA
:10284000020A1BF1020BC9E74848B0F8B604002899
:102850001ED1DFF84C192A00D2B22220424301EBEC
:102860000200B0F5FF5007003570701C00210170A8
:10287000401C398889B2090A0170401C39880170EE
:10288000461C3A48B0F8B604001D3849A1F8B60411
:102890003648B0F8B60480B2000A344981F82E01F7
:1028A0003248B0F8B604314981F82F012F48B0F80A
:1028B000B604001D2D49A1F8B6042C48B0F8B61492
:1028C000DFF8F00700F08EFCADF80000BDF8000066
:1028D00080B2000A3070701CBDF800100170401CFE
:1028E0002249B1F8B614891C204AA2F8B614BDE8F2
:1028F000F78F00BFC965002065650020CA6500200C
:1029000066650020CE6500206A650020D265002043
:102910006E650020D665002072650020DA65002013
:1029200076650020DE6500207A650020E0650020E5
:102930007C650020E26500207E650020E4650020C3
:1029400080650020E665002082650020E8650020A3
:1029500084650020EA65002086650020EC65002083
:1029600088650020EE6500208A6500202C0000208C
:10297000EF6500208B650020F06500208C6500204D
:102980002C6500202DE9F84F84B00400002594F850
:1029900002B05FEA0B2BE07850EA0B0BA0788DF8C1
:1029A000000094F803809DF80000002840F08A8021
:1029B0002179090260790143ADF80610BDF80600DF
:1029C000022190FBF1F0ADF80C00DFF8DC07642188
:1029D000ADF808104146C9B2022291FBF2F100EBBA
:1029E0004100070006200600002082465046BDF840
:1029F0000C1080B288425DD24046C0B2BDF80810CB
:102A000080B2884256D2300080B2205CADF802001D
:102A1000761CBDF802000002ADF80200BDF80210FD
:102A2000300080B2205C0143ADF80210761C4046B5
:102A3000C0B25C2802DB0120050032E04046C0B293
:102A40005A280FD1BDF80200642804D100F04AFCD6
:102A500000F025FF25E0BDF80200652821D100F037
:102A60001EFF1EE04046C0B25A281ADA4046C0B2E5
:102A700042280FD10020DFF83017A1F846000020CF
:102A8000DFF82417A1F848000422DFF820174620B9
:102A900000F05FFF02220DF102014046C0B200F0DB
:102AA00058FFBDF802003880BF1C18F102081AF167
:102AB000010A9BE72800C0B2002800F0DB8201F089
:102AC00050FAD7E29DF80000012840F038822179C1
:102AD000090260790143ADF80610BDF8060050FA0E
:102AE00088F0ADF80A00A01D81464046C0B2BDF88E
:102AF0000A1080B2884280F01B824046C0B2002893
:102B000048D006285BD00A286FD00C2879D012282C
:102B100000F08D80222800F0A980322800F0BD80CE
:102B2000362800F0D180382800F0DA80392800F00B
:102B3000E2803A2800F0EA803E2800F0FE80422839
:102B400000F01281462800F026814A2800F03A81E0
:102B50004E2800F05881502800F06281522800F081
:102B60006C81542800F07681562800F08081582826
:102B700000F097815A2800F0A0815C2800F0A9811C
:102B80005E2800F0B2815F2800F0B981602800F073
:102B9000C081CAE100208246504680B206280BDA86
:102BA00099F80000DFF80816524692B2885419F1DD
:102BB00001091AF1010AEFE718F1060895E700206C
:102BC0008246504680B204280CDA99F80000DFF8FB
:102BD000E015524692B21144887119F101091AF1B7
:102BE000010AEEE718F104087FE70221484600F0E9
:102BF00035FBDFF8BC15488119F1020918F102080C
:102C000073E700208246504680B206280CDA99F815
:102C10000000DFF89C15524692B21144087319F176
:102C200001091AF1010AEEE718F106085DE7002034
:102C30008246504680B2102815DA99F80000DFF875
:102C40007015524692B21144887419F10100DFF8F0
:102C50006015524692B21144897C017010F101094D
:102C60001AF1010AE5E718F110083EE70020824654
:102C7000504680B210280DDA99F80000DFF83015C0
:102C8000524692B2114481F8220019F101091AF159
:102C9000010AEDE718F1100827E7002082465046A8
:102CA00080B204280DDA99F80000DFF804155246C6
:102CB00092B2114481F8320019F101091AF1010AA6
:102CC000EDE718F1040810E70221484600F0C6FAC3
:102CD000DFF8DC14C88619F1020918F1020804E7CC
:102CE00099F80000DFF8C81481F8380019F10109DB
:102CF00018F10108F9E699F80000DFF8B41481F83A
:102D0000390019F1010918F10108EEE600208246A8
:102D1000504680B204280DDA99F80000DFF89014CC
:102D2000524692B2114481F83A0019F101091AF1A0
:102D3000010AEDE718F10408D7E600208246504664
:102D400080B204280DDA99F80000DFF864145246C6
:102D500092B2114481F83E0019F101091AF1010AF9
:102D6000EDE718F10408C0E600208246504680B224
:102D700004280DDA99F80000DFF83414524692B2B4
:102D8000114481F8420019F101091AF1010AEDE735
:102D900018F10408A9E600208246504680B20428B3
:102DA0000DDA99F80000DFF80814524692B2114487
:102DB00081F8460019F101091AF1010AEDE718F14D
:102DC000040892E600208246504680B2042817DAB2
:102DD00099F80000DFF8D813524692B2114481F8F6
:102DE0004A0019F10100DFF8C813524692B21144AB
:102DF00091F84A10017010F101091AF1010AE3E794
:102E000018F1040871E60221484600F027FADFF8BD
:102E1000A013A1F84E0019F1020918F1020864E6A6
:102E20000221484600F01AFADFF88413A1F8500096
:102E300019F1020918F1020857E60221484600F08C
:102E40000DFADFF86C13A1F8520019F1020918F11C
:102E500002084AE60221484600F000FADFF8501363
:102E6000A1F8540019F1020918F102083DE6022107
:102E7000484600F0F3F9DFF83813A1F8560019F1CD
:102E8000020918F10208DFF82803B0F85600DFF84D
:102E90001813A1F84E006422C349002000F059FD28
:102EA00023E60221484600F0D9F9C149A1F85800AB
:102EB00019F1020918F1020817E60221484600F04C
:102EC000CDF9BB49A1F85A0019F1020918F102081D
:102ED0000BE60221484600F0C1F9B549A1F85C00B3
:102EE00019F1020918F10208FFE599F80000B0494C
:102EF00081F85E0019F1010918F10108F5E599F86A
:102F00000000AB4981F85F0019F1010918F10108CF
:102F1000EBE50221484600F0A1F9A549A1F86000BF
:102F200019F102091BF1020BDFE562208046DCE5A6
:102F300062229F494FF4807000F00BFD9AE09DF8EB
:102F4000000011284DDB9DF80000192849DA994846
:102F50000078002840F08E80002082465046964936
:102F6000B1F8BA1480B288420ED29348514689B261
:102F7000084490F884039049524692B2114481F873
:102F8000A20F1AF1010AE9E79DF8000010388A49FA
:102F900081F8A20F8848B0F8BA0488490880012057
:102FA0008449087003208649087084480088811E7F
:102FB00089B2844800F016F9ADF80400BDF80400A9
:102FC00080B2000A7C497D4A1288114481F8A00F22
:102FD000BDF804007849794A1288114481F8A10F9C
:102FE00048E079480078002844D1002082465046C5
:102FF0007149B1F8BA1480B288420FD26E48514676
:1030000089B2084490F884036B49524692B2114445
:1030100041F2744288541AF1010AE8E79DF8000071
:103020006A4908706448B0F8BA0469490880012008
:103030006549087003206749087065480088811E4B
:1030400089B2624800F0CEF8ADF80400BDF8040083
:1030500080B2000A58495E4A1288114441F2724215
:103060008854BDF804005449594A1288114441F269
:103070007342885405B0BDE8F08F80B54E48B0F873
:10308000B204022815DA4C48B0F8B204012810D175
:1030900000204949A1F8B20401224FF480714E4842
:1030A00002F073F94448B0F8B62402494B4802F0E4
:1030B000CEF901BD5801002060300020C03A002048
:1030C0005C01002038B53C4890F8C404012861D167
:1030D0000020394981F8C4043748B0F8BA04811E89
:1030E00089B23F4800F07EF8040033483249B1F815
:1030F000BA14084490F8821309022F482E4AB2F8F5
:10310000BA24104490F8830301430D0020002900E5
:1031100080B289B288423DD140F6B8302649A1F844
:10312000BC04254890F88503132807D12C48FDF7E7
:10313000B7FA05202049A1F8B20427E01E4890F80C
:103140008503152807D12648FEF776F905201A4988
:10315000A1F8B2041AE0184890F88503202815D188
:103160001F48FFF70FFC0020134981F88703002058
:10317000114981F8880300200F4981F88903184814
:10318000FEF75AF905200C49A1F8B20400200A49BB
:10319000A1F8B00431BD000058660020B8660020D8
:1031A000405B0020605D0020006400204664002039
:1031B0002C650020681300202C00002058130020EC
:1031C00069130020CE0F00203A180020A014002020
:1031D0002A1800203B18002000000240B06900209F
:1031E000B003002070B403004FF6FF700A0092B2E3
:1031F000002A03D180B2C04380B22DE00022140027
:103200001A7815005B1C220092B2082A17DA020015
:1032100092B212F001022E00B6B216F0010696EA42
:10322000020F06D080B202004AF2010090EA52007A
:1032300001E080B24008641CADB26D08E3E7491EAE
:103240000A0092B2002AD9D10600320092B2120AC4
:1032500052EA0022100080B270BC704710B4020025
:103260000B00DBB2022B07D11478531C24021A780E
:10327000144320005A1C12E00B00DBB2042B0ED1C9
:103280001478531C24021A7814435B1C24021A7805
:1032900014435B1C24021A78144320005A1C10BCEF
:1032A000704713005A1EDBB2002B04D003780B705A
:1032B000401C491CF5E7704730B40400002013009F
:1032C0005A1EDBB2002B0AD023780D78AB4201D016
:1032D0000123180023780B70641C491CEFE7C0B26F
:1032E00030BC70471CB502226946FE2000F008FB86
:1032F000BDF8000041F25E3188420FD16422DFF850
:103300003014002000F0FCFADFF824044089002883
:1033100003D10320DFF818144881A1E064220021C2
:10332000DFF80C0402F09EFB41F25E30ADF80000C5
:1033300002226946FE2000F00CFB0320DFF8F013A8
:10334000A1F84E0040F20110DFF8E413A1F84C00A0
:103350005020DFF8DC13C8824620DFF8D41308833E
:103360000320DFF8CC1348833220DFF8C4138883AE
:103370000320DFF8BC1348810520DFF8B4138881EF
:103380000120DFF8AC1348840020DFF8A413888400
:103390000220DFF89C13C8840020010089B20929AB
:1033A00009DA411CDFF8882303009BB202EB4302D9
:1033B0001185401CF1E70024200080B204280ADABD
:1033C00014F10900DFF86813220092B201EB420108
:1033D000C881641CF0E70020DFF8541348870A20F6
:1033E000DFF84C1388870020DFF84413C8870520D6
:1033F000DFF83C13A1F840004820DFF83413A1F8AF
:1034000042000020DFF82813A1F846000020DFF872
:103410002013A1F848004FF4E260DFF81413A1F87C
:103420004A000020DFF80813A1F850000020DFF860
:103430000013A1F852000020DFF8F412A1F85400A4
:103440000120DFF8EC12A1F856000020DFF8E012AE
:10345000A1F85A006422DFF8D812002000F079FAAF
:1034600013BD80B5022269464FF4F07000F048FAAF
:10347000BDF8000041F25D31884220D16222DFF8C0
:10348000B4124FF4807000F03BFA0120DFF8A41270
:1034900081F85F001520DFF89C1281F85E0040F291
:1034A0008630DFF89012A1F858001620A149A1F843
:1034B0005A0040F29F309F49A1F85C00BAE06222B6
:1034C00000219C4802F0CEFA41F25D30ADF80000D8
:1034D000022269464FF4F07000F03BFA75209549DE
:1034E000887134209349C8715B2092490872D320B7
:1034F0009049487241F661608E49488170208D493B
:103500000870C7208B4948706F208A4988708420D2
:103510008849C87000208749087102208549487190
:103520007520844981F832003420824981F83300C3
:103530005B20804981F83400D3207E4981F8350032
:1035400041F661607B49C88670207A490873C720BC
:10355000784948736F207749887384207549C87308
:10356000002074490874022072494874C0207149CF
:1035700081F83A00A8206F4981F83B0000206D498E
:1035800081F83C000A206B4981F83D00FF20694921
:1035900081F83E00FF20674981F83F00FE20654921
:1035A00081F840000020634981F84100C020614952
:1035B00081F84200A8205F4981F8430000205D495E
:1035C00081F8440001205B4981F8450001205949F8
:1035D00081F838000120574981F839000120554908
:1035E000A1F84E0001205349A1F850000120514993
:1035F000A1F8540003204F49A1F8560001204D497D
:1036000081F85F0015204B4981F85E0040F286305A
:103610004849A1F8580016204649A1F85A0040F23E
:103620009F304449A1F85C00622242494FF4807007
:1036300000F08FF901BD80B50222694640F2FE60BC
:1036400000F05EF9BDF8000041F25D31884207D11B
:103650004FF4107239494FF4806000F051F92CE0BA
:103660004FF410720021354802F0FCF90B22344966
:10367000324802F001FA0B223249334802F0FCF9D9
:1036800001202E49A1F8300204202C49A1F8320271
:1036900001202A49A1F834024FF4107227494FF44F
:1036A000806000F056F941F25D30ADF80000022272
:1036B000694640F2FE6000F04CF901BD80B524225D
:1036C0000021224802F0CEF970220021204802F0A9
:1036D000C9F943F2340200211E4802F0C3F9642202
:1036E0000021134802F0BEF962220021114802F0C5
:1036F000B9F94FF426620021174802F0B3F94FF4EC
:10370000087200210C4802F0ADF960220021134834
:1037100002F0A8F9FFF7E6FDFFF7A3FEFFF78BFF26
:103720004FF4A07200210E4802F09CF901BD000088
:10373000006400202C650020405B002080540020A5
:1037400064EA020870EA0208D0540020346B0020BA
:10375000906300202C00002060300020586600207C
:103760007055002010F007035A490A684FF6FF0110
:103770000A4052EA032258490A4356490A607047F0
:1037800054480068C0F302207047012210F01F0166
:103790008A40524903005BB25B0941F8232070471D
:1037A00010B4020052B2002A09D50A014C4B0400A1
:1037B00064B214F00F04234403F8042C04E00A015B
:1037C000484B040064B21A5510BC704770B4030033
:1037D00013F00704D4F10700052801D3042001E009
:1037E000D4F10700251D072D01D2002500E0E51EBC
:1037F000012616FA00F0401E0140A940012010FAEF
:1038000005F56D1E2A401143080070BC7047BFF3D8
:103810004F8F3048016811F4E061334801432D486F
:103820000160BFF34F8F00BFFDE710B50400601EBD
:10383000B0F1807F01D301200EE0601E2B490860AB
:103840000F215FF0FF30FFF7ABFF00202849086031
:10385000072028490860002010BD10B50400200092
:10386000FFF780FF10BD2DE9F04104000D001600A8
:103870000027FFF785FF8046320029004046FFF70A
:10388000A5FF0100200040B2FFF78AFFBDE8F081EC
:1038900010B50400200040B2FFF777FF10BD80B5DF
:1038A000FFF7B5FF01BD10B504002000FFF7BDFF15
:1038B00010BD042806D10F49096851F004010D4AD2
:1038C000116005E00B49096831F00401094A1160F3
:1038D000704700000CED00E00000FA0500E100E098
:1038E00018ED00E000E400E00400FA0514E000E058
:1038F00018E000E010E000E080B500F06BF801BDDA
:103900007CB506000C001500002201212F4801F0B3
:103910003CFD03208DF80000300080B2000A8DF8D5
:10392000010030008DF802004FF47A7303226946DB
:10393000274802F0EEF84FF47A732A0092B2210081
:10394000234802F0BEF901220121204801F01DFDAB
:1039500073BD7CB504000D001600002201211B4838
:1039600001F013FD06208DF800004FF47A73012258
:103970006946174802F0CDF801220121134801F0F1
:1039800004FD00220121114801F0FFFC02208DF806
:103990000000200080B2000A8DF8010020008DF8A0
:1039A00002004FF47A7303226946094802F0B1F825
:1039B0004FF47A73320092B22900054802F0A9F858
:1039C00001220121014801F0E0FC73BD0004024026
:1039D000D867002010B5DFF87C09C07F012800F00F
:1039E0006B820120DFF86C19C877DFF8680900895D
:1039F000002806D0DFF85C090089401EDFF8541962
:103A00000881DFF850094089002806D0DFF8440912
:103A10004089401EDFF83C194881DFF83809808969
:103A2000002806D0DFF82C098089401EDFF8241911
:103A30008881DFF82009C089002806D0DFF8140942
:103A4000C089401EDFF80C19C881DFF80809008A18
:103A5000002806D0DFF8FC08008A401EDFF8F418C2
:103A60000882DFF8F008408A002806D0DFF8E40872
:103A7000408A401EDFF8DC184882DFF8D808008949
:103A8000002808D14EF66020DFF8C8180881012010
:103A9000DFF8C0180875DFF8BC084089002808D195
:103AA0004FF47A70DFF8AC1848810120DFF8A418D1
:103AB0004875DFF8A0088089002808D14FF4FA7013
:103AC000DFF8901888810120DFF888188875DFF802
:103AD0008408C089002807D16420DFF87818C881DD
:103AE0000120DFF87018C875DFF86808008A002820
:103AF00007D13220DFF85C1808820120DFF8541863
:103B00000876DFF85008408A002807D10A20DFF83D
:103B1000441848820120DFF83C1848760120DFF87D
:103B200034188876DFF82C084068022806D3DFF8BE
:103B300024084068401EDFF81C184860DFF81808A9
:103B4000B0F84A00C00527D5DFF80C0890F85000FF
:103B5000C00721D5DFF80008B0F90010DFF8F8073A
:103B6000808BDFF8F427528912180A2042439142D1
:103B70001BDADFF8E407B0F85400022815DADFF8A2
:103B8000DC07806E002810D0DFF8D007806E401E62
:103B9000DFF8C817886608E0DFF8BC0781894EF6B1
:103BA00060204143DFF8B40781660020DFF8A417E6
:103BB000C877DFF8A0070068401CDFF89817086096
:103BC0000024200080B20A2880F29280DFF890174B
:103BD000220092B240F2D240424301EB0200B0F820
:103BE000B004002816D0DFF87817220092B240F215
:103BF000D240424301EB0200B0F8B004411EDFF8AE
:103C0000602723009BB240F2D240434302EB030003
:103C1000A0F8B014DFF84817220092B240F2D24068
:103C2000424301EB0200B0F8BC04002816D0DFF8D4
:103C30003017220092B240F2D240424301EB020020
:103C4000B0F8BC04411EDFF8182723009BB240F2F5
:103C5000D240434302EB0300A0F8BC14DFF8001786
:103C6000220092B240F2D240424301EB0200B0F88F
:103C7000B204022816DBDFF8E816220092B240F206
:103C8000D240424301EB0200B0F8B204411EDFF81B
:103C9000D02623009BB240F2D240434302EB030004
:103CA000A0F8B214DFF8B816220092B240F2D24067
:103CB000424301EB0200B0F8C204022816DBDFF831
:103CC000A016220092B240F2D240424301EB020021
:103CD000B0F8C204411EDFF8882623009BB240F2F0
:103CE000D240434302EB0300A0F8C214641C68E70F
:103CF000DFF86C06B0F8BC04002817D0DFF85406D3
:103D000000686421B0FBF1F201FB1200332806D3F6
:103D100000224021DFF84C0601F037FB1EE00122B3
:103D20004021DFF8400601F030FB17E0DFF8240601
:103D300000684FF4FA71B0FBF1F201FB1200FB28AE
:103D400006D300224021DFF81C0601F01EFB05E02F
:103D500001224021DFF80C0601F017FBDFF8000616
:103D6000B0F8600E002817D0DFF8E805006864217D
:103D7000B0FBF1F201FB1200332806D30022102120
:103D8000DFF8E40501F001FB22E001221021DFF859
:103D9000D80501F0FAFA1BE0DFF8C40590F86D0EC3
:103DA00000280FD0DFF8B80590F86D0E401EDFF840
:103DB000B01581F86D0E00221021DFF8AC0501F07E
:103DC000E4FA05E001221021DFF89C0501F0DDFA9C
:103DD000DFF898050088002819D0DFF8780500681A
:103DE0006421B0FBF1F201FB1200332807D300225B
:103DF0004FF48061DFF8780501F0C7FA22E0012274
:103E00004FF48061DFF8680501F0BFFA1AE0DFF8CF
:103E10006405007800280ED0DFF858050078401EB1
:103E2000DFF85015087000224FF48061DFF840057C
:103E300001F0ABFA06E001224FF48061DFF83005B3
:103E400001F0A3FADFF830050088002819D0DFF868
:103E5000040500686421B0FBF1F201FB1200332875
:103E600007D300224FF40071DFF8040501F08DFA4A
:103E700022E001224FF40071DFF8F40401F085FA2A
:103E80001AE0DFF8F804007800280ED0DFF8EC0420
:103E90000078401EDFF8E414087000224FF400712F
:103EA000DFF8CC0401F071FA06E001224FF4007152
:103EB000DFF8BC0401F069FA10BD10B504002068F9
:103EC000DFF8BC14884206D100224FF48071DFF87D
:103ED000940401F05AFA2068DFF8A814884205D14A
:103EE00000220821DFF8800401F04FFA2068DFF893
:103EF000981488420DD100228021DFF86C0401F073
:103F000044FADFF88804007810F0FE00DFF87C1433
:103F100008702068DFF87814884206D100224FF438
:103F20008071DFF84C0401F030FA2068DFF8641487
:103F3000884205D100220821DFF8280401F025FA83
:103F400010BD80B50022DFF85014DFF8F80C02F045
:103F500094FA0022DFF85C1BDFF8E80C02F0DBF9D2
:103F600001BD80B5DFF8F003B0F85C0080B2000A54
:103F7000DFF82414C870DFF8E003B0F85C00DFF865
:103F800018140870DFF8D003B0F85E0080B2000AA1
:103F9000DFF804144870DFF8C003B0F85E00DFF803
:103FA000F8138870DFF8B003B0F8600080B2000A40
:103FB000DFF8001B0870DFF8A003B0F86000DFF83E
:103FC000F41A4870DFF89003B0F86200DFF8E41AE2
:103FD00088700022DFF8C013DFF8680C02F0CFF918
:103FE0000022DFF8D01ADFF85C0C02F007F901BDFF
:103FF000DFF86403C08F002818D002282CD024D307
:10400000042836D02FD3062840D038D308284BD0E8
:1040100043D30A2856D04ED30C2861D059D30E284A
:104020006CD064D3102877D06FD37CE0DFF88C1B82
:10403000DFF82403028DA620424301EB020030F892
:10404000A60CDFF81413088072E0DFF8740B008808
:10405000DFF8041308806BE0DFF8640B4088DFF8BA
:10406000F812088064E0DFF8580B408CBA490880E9
:104070005EE0DFF84C0B808CB749088058E0DFF831
:10408000400BB0F84400B449088051E0DFF8300B31
:10409000B0F84600B04908804AE0DFF8240BB0F8D9
:1040A0006600AD49088043E0DFF8140BB0F8680003
:1040B000A94908803CE0DFF8080BB0F88800A64961
:1040C000088035E0DFF8F80AB0F88A00A2490880D5
:1040D0002EE0DFF8EC0AB0F8AA009F49088027E03C
:1040E000DFF8DC0AB0F8AC009B49088020E0DFF87C
:1040F000D00AB0F8CC009849088019E0DFF8C00A6F
:10410000B0F8CE009449088012E0DFF8B40AB0F8A5
:10411000EE00914908800BE0DFF8A40AB0F8F00047
:104120008D49088004E0DFF8940A00888A490880F5
:10413000704780B58848B0F9000047F6FF718842A3
:1041400000F08F808448B0F900004FF6FF7188427C
:1041500000F087808048B0F84A00C0057DD57E48D1
:1041600090F85000C00778D57B48B0F8540000287C
:1041700008D0022829D013D3042853D048D30528C7
:1041800061D06EE001207449A1F854007248B0F883
:1041900052104FF6FE7001406F48A0F8521060E0D8
:1041A0006D48B0F900106C48808B6B4A5289121828
:1041B0000A204243914207DB6848806E002803D101
:1041C00002206549A1F854004BE06348B0F90010A3
:1041D0006148828B0A204243914218DA5E48B0F867
:1041E000520050F001005C49A1F852005A48B0F862
:1041F0004A00800507D55848B0F8520050F0020038
:104200005549A1F8520003205349A1F8540028E071
:10421000514890F85200800703D404204E49A1F879
:1042200054001EE04C48B0F900104B48808B4A4ABD
:10423000528912180A204243914203DB0520464965
:10424000A1F854000DE0444890F85200C00703D490
:1042500002204149A1F8540003E000203E49A1F8A2
:1042600054003D4890F84A00C00631D43A48B0F8AE
:104270004800002809D000203749A1F84800022250
:10428000DFF89C1B4820FFF764FB3348B0F846007A
:10429000002809D000203049A1F846000222DFF8AA
:1042A000841B4620FFF755FB2B4890F8520040072F
:1042B0000ED52948B0F852104FF6FB700140264841
:1042C000A0F852100222DFF8AC1B5220FFF741FB8E
:1042D00001BDDFF8A40B007A01283AD00120DFF8F5
:1042E000981B0872DFF8940B0068C04310F470400C
:1042F000DFF8841BC880DFF8801BC988DFF8782BC3
:104300009288914217D1DFF8701B0988322916DA9A
:10431000DFF8641B0988491CDFF85C2B1180DFF88B
:10432000581B098832290AD1DFF84C1BC988DFF8ED
:10433000482B518003E00021DFF83C2B1180DFF88F
:10434000381BC988DFF8302B91800021DFF8282B3B
:1043500011727047346B00200064002090630020CD
:104360002C00002000000240000C02403018002009
:10437000000802403D1800205E1300206B1300204F
:104380000010014000440040004800402C6C002018
:10439000004C004000500040206C00202DE9F0410E
:1043A00002F0ECF824220021DFF8D40A01F05AFBD5
:1043B00000270A2F08D240F2D2420021DFF8C40AB7
:1043C00001F050FB7F1CF4E770220021DFF8B80AEF
:1043D00001F048FB0A220021DFF89C0A01F042FBB1
:1043E0000A220021DFF8A40A01F03CFB642200212C
:1043F000DFF89C0A01F036FB64220021DFF8940A02
:1044000001F030FB64220021DFF88C0A01F02AFB66
:1044100062220021DFF8840A01F024FB62220021DD
:10442000DFF87C0A01F01EFB62220021DFF8740A2B
:1044300001F018FB5FF00008B8F1100F08D2A622B7
:104440000021DFF8780701F00DFB18F10108F3E710
:104450000027102F07D2A6220021DFF84C0A01F016
:1044600001FB7F1CF5E75FF00008B8F1100F08D2E0
:1044700006220021DFF8340A01F0F4FA18F10108ED
:10448000F3E70027102F07D206220021DFF8200AC9
:1044900001F0E8FA7F1CF5E75FF00008B8F1100FB3
:1044A00008D206220021DFF8F40B01F0DBFA18F144
:1044B0000108F3E70027102F07D222220021DFF89E
:1044C000000701F0CFFA7F1CF5E75FF00008B8F1B4
:1044D000100F08D222220021DFF8C40B01F0C2FA2B
:1044E00018F10108F3E70027102F07D2222200213C
:1044F000DFF8B00B01F0B6FA7F1CF5E72A220021A5
:10450000DFF8A40B01F0AEFA2A220021DFF89C0BA1
:1045100001F0A8FA2A220021DFF8940B01F0A2FA98
:104520000A220021DFF88C0B01F09CFA0A220021FC
:10453000DFF8840B01F096FA0A220021DFF87C0BE9
:1045400001F090FA14220021DFF8740B01F08AFACE
:1045500014220021DFF86C0B01F084FA14220021F0
:10456000DFF8640B01F07EFA06220021DFF85C0B15
:1045700001F078FA0A220021DFF83C0B01F072FA10
:1045800006220021DFF8480B01F06CFA4FF410729C
:104590000021DFF8400B01F065FA4FF410720021A2
:1045A000DFF8340B01F05EFA4FF410720021DFF8EF
:1045B0002C0B01F057FA00F07FFA00F07BFC00F0C2
:1045C000E4FB01F0FBFF00F006FC00F02DFC00F026
:1045D0007CFB00F0AAFB00F037FB00F00FFB00F0C3
:1045E000F1FA00224FF48071DFF8F40A00F0CDFEFA
:1045F00000220821DFF8EC0A00F0C7FE002280212B
:10460000DFF8E00A00F0C1FE00224FF48071DFF80D
:10461000D80A00F0BAFE00220821DFF8C40A00F030
:10462000B4FEFFF74BF8DFF8C40A0068C06850F02A
:104630002000DFF8B81A0968C860DFF8B40A00681B
:10464000C06850F02000DFF8A81A0968C860DFF8D9
:10465000A40A0068C06850F02000DFF8981A0968C2
:10466000C860DFF8940A0068C06850F02000DFF8E6
:10467000881A0968C860DFF8840A0068C06850F0CA
:104680002000DFF8781A0968C8606420DFF8F017A6
:1046900048604FF6FF70DFF8F0178880FF20DFF8E2
:1046A000601A08704FF49670DFF8D817A1F8560E0C
:1046B0004FF49670DFF84C1A08804FF49670DFF8CC
:1046C000481A08800020DFF8C81748800020DFF86B
:1046D000C017C8830020DFF8B817088401F07DFFF9
:1046E000FEF7F0FCFEF7C9FC02F069F802F0E1F811
:1046F00002F022FD02F067FE03F0C8F903F0DDFAD4
:10470000DFF87C07807E012805D10020DFF87017D4
:104710008876FFF7DEFDDFF86807407E012840F06D
:10472000BB800020DFF858174876FFF761FCFFF7E1
:1047300000FDDFF85C07B0F84E000400DFF850071A
:10474000B0F84C000500DFF84807B0F84C0080B224
:10475000000A060000212000C0B281421BD2DFF80F
:10476000280700EB4100C088002809D0DFF82007A7
:10477000408801228A401043DFF81427508008E067
:10478000DFF80C07408801228A409043DFF80027B9
:104790005080491CDFE700222800C0B282421BD2B1
:1047A000DFF8E40600EB4200C08C002809D0DFF8F7
:1047B000E006C08B012191400843DFF8D416C8837E
:1047C00008E0DFF8CC06C08B012191408843DFF878
:1047D000C016C883521CDFE700273000C0B28742F2
:1047E0001CD2DFF8A40600EB4700B0F84600002812
:1047F00009D0DFF89C06008C0121B9400843DFF89E
:104800009016088408E0DFF88806008C0121B94082
:104810008843DFF87C1608847F1CDEE7DFF870062B
:1048200090F82000C00709D447F6FF70DFF8901316
:10483000088047F6FF70DFF888134880DFF85006DD
:1048400090F82000800707D447F6FF70DC494884C1
:1048500047F6FF70DA498884DFF8340690F82000C4
:10486000400709D447F6FF70D549A1F8440047F640
:10487000FF70D349A1F84600DFF8140690F8200035
:10488000000709D447F6FF70CD49A1F8660047F646
:10489000FF70CB49A1F86800DFF8E405007E01282D
:1048A00005D10020DFF8D8150876FFF74AFBDFF8BE
:1048B000D005C07D012809D10020DFF8C415C875D6
:1048C0004AF6AA20DFF8441809680860DFF8B00546
:1048D000807D012814D10020DFF8A4158875DFF849
:1048E000A00590F82000002805D10120DFF89015E0
:1048F00081F8200004E00020DFF8841581F8200012
:10490000DFF88C05B0F84A00000469D5DFF87005BF
:10491000407D01287FF4E2AE0020DFF86415487581
:10492000DFF86C05B0F8420000283FF4D7AEDFF89E
:10493000600590F84A00C0067FF5D0AEDFF850055C
:1049400090F85000C0077FF5C9AEDFF8440590F835
:10495000520010F00C0F7FF4C1AEDFF83405B0F850
:104960004800401CDFF82815A1F84800DFF82005B2
:10497000B0F848003C282CDB0020DFF81415A1F823
:104980004800DFF80C05B0F84600401CDFF80015C1
:10499000A1F84600DFF8F804B0F84600DFF8F0149C
:1049A000B1F8421088420ED30020DFF8E414A1F8D9
:1049B0004600DFF8DC04B0F8520050F00400DFF8E5
:1049C000D014A1F852000222DFF858144620FEF756
:1049D000C0FF0222DFF848144820FEF7BAFF7DE648
:1049E000DFF89C04007D01287FF478AE0020DFF81A
:1049F00090140875DFF89804B0F8420000283FF4DE
:104A00006DAEDFF88C0490F84A00C0067FF566AE04
:104A1000DFF87C0490F85000C0077FF55FAEDFF848
:104A2000700490F8520010F00C0F7FF457AEDFF8CE
:104A30006004B0F84800401CDFF85414A1F84800A6
:104A4000DFF84C04B0F848003C282CDB0020DFF8ED
:104A50004014A1F84800DFF83804B0F84600401CC4
:104A6000DFF82C14A1F84600DFF82404B0F8460063
:104A7000DFF81C14B1F8421088420ED30020DFF892
:104A80001014A1F84600DFF80804B0F8520050F006
:104A90000400DFF8FC13A1F852000222DFF88413AF
:104AA0004620FEF756FF0222DD494820FEF751FF5F
:104AB00014E60000786B002000B5A9B0002000903B
:104AC000DFF84C06006850F08050DFF844160860AC
:104AD000DFF83C06006810F080500090009800203D
:104AE0000090DFF83006006850F44040DFF82416EC
:104AF0000860DFF82006006810F44040009000983D
:104B0000092006905FF48030079001200B9002206E
:104B10000C905FF480000D9019200E90C0200F9033
:104B200002201090042011900220129006A803F099
:104B300061FB002805D040F21531DFF8DC0500F0FC
:104B400005FB0F20019002200290002003904FF4FB
:104B50008050049000200590032101A803F044FD3B
:104B6000002805D040F22331DFF8AC0500F0EEFA62
:104B7000282013904FF400701C9000201F9013A861
:104B800003F024F9002805D040F22B31DFF8880526
:104B900000F0DCFA03F0CDFD4FF47A71B0FBF1F0D8
:104BA000FEF781FE0420FEF784FE002200215FF064
:104BB000FF30FEF758FE29B000BD00006030002035
:104BC000405B002080B5DFF85405DFF84015086031
:104BD0000620DFF83815486040F27120DFF82C1508
:104BE0008860DFF8280503F0C9FD002805D040F2F1
:104BF0005A31DFF8240500F0A9FA01BD80B5DFF8CD
:104C000020051049086000200E4948607F200D49AA
:104C10008860FF200B49C86000200A490861002015
:104C200008494861002007498861064801F080FA78
:104C3000002805D040F27631DFF8DC0400F086FA77
:104C400001BD0000586B002080B5DFF8D804DFF804
:104C5000D81408604FF48270DFF8CC14486000204C
:104C6000DFF8C41488600020DFF8BC14C86000209E
:104C7000DFF8B41408610020DFF8AC1448614FF489
:104C80000070DFF8A41488611020DFF89C14C8615C
:104C90000020DFF8941408620020DFF88C144862CA
:104CA0000020DFF8841488620A20DFF87C14C862D0
:104CB000DFF8740400F0E6FE002805D040F29131E0
:104CC000DFF8540400F042FA01BD80B5DFF85C045F
:104CD000DFF8241408604FF41650DFF81C14486005
:104CE0000020DFF8141488600020DFF80C14C8607E
:104CF0000020DFF8041408610C20DFF8FC13486181
:104D00000020DFF8F41388610020DFF8EC13C8619D
:104D1000DFF8E40300F060FB002805D04FF4697170
:104D2000DFF8F40300F012FA01BD80B5DFF80004EB
:104D3000DFF8C81308604FF41650DFF8C01348605E
:104D40000020DFF8B81388600020DFF8B013C860D7
:104D50000020DFF8A81308610C20DFF8A0134861D9
:104D60000020DFF8981388610020DFF89013C861F5
:104D7000DFF8880300F030FB002805D040F2B7319F
:104D8000DFF8940300F0E2F901BD80B5DFF8A40379
:104D9000D64908604FF41640D44948600020D349F2
:104DA00088600020D149C8600020D04908610C20EB
:104DB000CE4948610020CD4988610020CB49C861B7
:104DC000CA4800F009FB002804D040F21641D2483E
:104DD00000F0BCF901BD80B5D748C54908604FF463
:104DE0001650C34948600020C14988600020C0496E
:104DF000C8600020BE4908610C20BD494861002000
:104E0000BB4988610020BA49C861B94800F0E4FA9A
:104E1000002804D040F22941BF4800F097F901BDB5
:104E2000486400204664002080B5C448B149086049
:104E30004FF49640AF4948600020AE49886000209A
:104E4000AC49C8600020AB4908610C20A949486101
:104E50000020A84988610020A649C861A54800F043
:104E6000BBFA002804D040F23C41AB4800F06EF998
:104E700001BD000052640020D46B002010100240DD
:104E8000346B00202C00002090630020E06B002099
:104E90000064002064640020C86400202C650020A9
:104EA00090650020F4650020C03A0020586600207C
:104EB000B866002080B586B000200590A048006844
:104EC00050F010009E4908609D48006810F01000E6
:104ED00005900598002005909948006850F08000E2
:104EE000974908609648006810F080000590059882
:104EF000002005909248006850F001009049086039
:104F00008F48006810F0010005900598002005907A
:104F10008B48006850F004008949086088480068A0
:104F200010F0040005900598002005908448006862
:104F300050F00200824908608148006810F00200C9
:104F400005900598002005907D48006850F0080005
:104F50007B4908607A48006810F0080005900598C1
:104F600000224FF44361774800F00FFA002248F224
:104F700008115B4800F009FA01224021584800F06E
:104F800004FA00220121704800F0FFF900224FF4DA
:104F90008071554800F0F9F901224FF4C061524880
:104FA00000F0F3F9002288214E4800F0EEF90122CA
:104FB00010214C4800F0E9F94FF4436000900120C3
:104FC0000190002002900020039069465D4800F0A7
:104FD000D3F848F2081000900120019000200290C0
:104FE0000020039069463E4800F0C6F8402000903B
:104FF000112001900020029000200390694638485B
:1050000000F0BAF8012000900120019000200290E9
:105010000020039069464C4800F0AEF84FF4704011
:10502000009000200190012002906946454800F060
:10503000A3F84FF4807000900120019000200290AE
:10504000002003906946284800F096F84FF4C060AD
:1050500000901120019000200290002003906946EA
:10506000214800F089F8882000900120019000205C
:1050700002900020039069461A4800F07DF8102045
:1050800000901120019000200290002003906946BA
:10509000144800F071F807B000BD00001867002048
:1050A000605D0020805F0020B06A0020DC6A002084
:1050B000086B0020EC6B0020F86B0020046C0020D3
:1050C0008C6B0020A06B0020B46B0020106C0020C3
:1050D000186C002080540020C05600200059002089
:1050E00000000240000C024000080240B0690020AD
:1050F000F0690020306A00203068002070680020CD
:10510000391800205413002026180020C86B0020F6
:1051100040380240007000403CE802080030004087
:1051200000280040003C0040D8670020004C0040B0
:105130000050004000100140004400400048004082
:10514000303802400010024000040240FEE70EE04A
:1051500002684368024408305FEAC37C44BF4B44A2
:105160005B1E52F804CB43F804CB091FF9D150F869
:10517000041B0029ECD17047F8B40023002400255B
:105180000026102E80F0FF800122B24013000A6832
:105190001A4014009C4240F0F4804A68022A02D06F
:1051A0004A68122A1ED13200D20800EB8202176A26
:1051B0005FF00F0C16F00702D2B292001CFA02FC4C
:1051C00037EA0C07D1F810C016F00702D2B29200ED
:1051D0001CFA02FC5CEA07073D003200D20800EB33
:1051E0008202156207685FF0030C3200D2B25200EF
:1051F0001CFA02FC37EA0C0791F804C01CF0030CFF
:105200003200D2B252001CFA02FC5CEA07070760C7
:105210004A68012A08D04A68022A05D04A68112A39
:1052200002D04A68122A24D185685FF0030C32004C
:10523000D2B252001CFA02FC35EA0C05D1F80CC0BF
:105240003200D2B252001CFA02FC5CEA050585600D
:1052500042685FF0010C1CFA06FC32EA0C02D1F83D
:1052600004C0CCF3001C1CFA06FC5CEA0202170026
:105270004760C5685FF0030C3200D2B252001CFADE
:1052800002FC35EA0C05D1F808C03200D2B2520057
:105290001CFA02FC5CEA0505C5604A68D20070D5BC
:1052A000002200923F4A126852F480423D4F3A6019
:1052B0003C4A126812F480420092009A3A4A37003F
:1052C000BF0852F827705FF00F0C16F00302D2B23D
:1052D00092001CFA02FC37EA0C07344A904201D1D2
:1052E00000251EE0324A904201D1012519E0314AE1
:1052F000904201D1022514E02F4A904201D10325AA
:105300000FE02E4A904201D104250AE02C4A904237
:1053100001D1052505E02B4A904201D1062500E088
:105320000725EDB216F00302D2B2920095402F434A
:105330001D4A3500AD0842F82570234A1268A24381
:105340004D68ED0300D522431F4D2A601F4D2D6887
:10535000A5434F68BF0300D525431C4A15601C4A6E
:105360001268A2434F68FF0200D52243184D2A60FD
:10537000184D2D68A5434F68BF0200D52543154A37
:105380001560761CFDE6F1BC70471300DBB2002B04
:1053900003D00B009BB2836103E00B009BB21B04A4
:1053A00083617047443802400838014000000240E1
:1053B0000004024000080240000C024000100240BD
:1053C0000014024000180240003C0140043C01402F
:1053D000083C01400C3C014010B50400002C01D1F8
:1053E000012033E0A0690028FFD194F8390000289B
:1053F00005D1002084F83800200003F06CFA242046
:1054000084F839002068C06830F400502168C86012
:10541000200000F09BF92068006930F4904021687A
:1054200008612068406930F02A00216848612068DE
:10543000C06850F400502168C8600020E06320205C
:1054400084F83900202084F83A00002010BD10B400
:10545000030093F83900202823D1002903D010003D
:1054600080B2002801D101201CE093F83800012807
:1054700001D1022016E0012083F8380019629A84D5
:10548000DA840020D863212083F83900002083F8D3
:1054900038001868C06850F080001C68E060002088
:1054A00000E0022010BC70472DE9F8430600306888
:1054B00007683068D0F80C803068D0F8149000206D
:1054C000002517F00F04002C08D1B80606D55FEAB6
:1054D000886003D5300000F0E8F880E0002C6CD044
:1054E0005FEAC97002D418F4907F66D03800C00714
:1054F00006D55FEAC85003D5F06B50F00100F063A9
:10550000780706D54846C00703D5F06B50F0020077
:10551000F063B80706D54846C00703D5F06B50F0D6
:105520000400F063380706D54846C00703D5F06B82
:1055300050F00800F063F06B00283DD0B80605D5A8
:105540005FEA886002D5300000F0AFF8306840694B
:10555000800910F001000500F06B000701D4002D58
:1055600025D0300000F03DF83068406940061AD57B
:105570003068406930F0400031684861706B002845
:105580000DD00FF28100716B0865706B03F0AAFB00
:10559000002811D0706B716B096D88470CE03000EA
:1055A00003F0B4FB08E0300003F0B0FB04E030008F
:1055B00003F0ACFB0020F06311E0380606D55FEA8B
:1055C000086003D5300000F029F808E0780606D519
:1055D0005FEA486003D5300000F057F8FFE7BDE808
:1055E000F1830168C96831F490710268D160016883
:1055F00049694908490002685161202180F83A1040
:105600007047000038B50400A56B0020E885002035
:10561000E884280003F07AFB31BD0000010091F816
:10562000390021282FD18868B0F5805F11D1086A30
:1056300002001088C005C00D0B685860086900287A
:1056400003D1086A801C086209E0086A401C0862ED
:1056500005E0086A431C0B6200780B685860C88C30
:10566000401EC88480B200280BD10868C06830F0A2
:1056700080000B68D8600868C06850F040000B6874
:10568000D860002000E00220704710B504002068B8
:10569000C06830F040002168C860202084F83900DC
:1056A0002000FEF70AFC002010BD38B5040094F875
:1056B0003A00222848D1A068B0F5805F16D1A06AD0
:1056C00005002069002808D120684068C005C00D89
:1056D0002880A06A801CA0621AE02068406800F060
:1056E000FF002880A06A401CA06211E02069002809
:1056F00006D1A06A411CA16221684968017007E0D7
:10570000A06A411CA1622168496811F07F01017003
:10571000E08D401EE08580B2002813D12068C0686B
:1057200030F490702168C8602068406940084000EB
:1057300021684861202084F83A00200003F0E7FA4D
:10574000002002E0002000E0022032BD2DE9F843F5
:10575000040000212068026932F44052E0680243EC
:10576000206802612068C368BB480340A068034307
:105770002069034360690343E06903432068C36011
:105780002068456935F44075A06905432068456186
:10579000E069B0F5004F40F0B0802068AF49884222
:1057A00003D02068AE49884253D102F0D0FF814631
:1057B00002F0CDFF804602F0CAFF070002F0C7FFEB
:1057C000060002F0C4FF192101FB09F961684900D4
:1057D000B9FBF1F16422B1FBF2F2192101FB08F8E7
:1057E00061684900B8FBF1F319214F436168490032
:1057F000B7FBF1F16427B1FBF7F77FF0630101FB21
:105800000733D90032316423B1FBF3F35B0013F4A7
:10581000F87313EB021319214E4361684900B6FB7C
:10582000F1F21921484361684900B0FBF1F06421AD
:10583000B0FBF1F17FF0630000FB0122D0003230B9
:105840006421B0FBF1F010F00700C31820688360FA
:1058500000E102F071FF814602F06EFF804602F027
:105860006BFF070002F068FF060002F065FF1921D8
:1058700001FB09F961684900B9FBF1F16422B1FB50
:10588000F2F2192101FB08F861684900B8FBF1F355
:1058900019214F4361684900B7FBF1F16427B1FB5F
:1058A000F7F77FF0630101FB0733D900323164233E
:1058B000B1FBF3F35B0013F4F87313EB021319213C
:1058C0004E4361684900B6FBF1F219214843616813
:1058D0004900B0FBF1F06421B0FBF1F17FF063000F
:1058E00000FB0122D00032306421B0FBF1F010F057
:1058F0000700C31820688360ACE0206857498842DD
:1059000003D020685649884252D102F020FF8146D8
:1059100002F01DFF804602F01AFF070002F017FF99
:10592000060002F014FF192101FB09F961688900E2
:10593000B9FBF1F16422B1FBF2F2192101FB08F885
:1059400061688900B8FBF1F319214F436168890050
:10595000B7FBF1F16427B1FBF7F77FF0630101FBBF
:105960000733190132316423B1FBF3F313F0F00371
:1059700013EB021319214E4361688900B6FBF1F263
:105980001921484361688900B0FBF1F06421B0FB44
:10599000F1F17FF0630000FB01221001323064213D
:1059A000B0FBF1F010F00F00C3182068836051E0E5
:1059B00002F0C2FE814602F0BFFE804602F0BCFE4D
:1059C000070002F0B9FE060002F0B6FE192101FB45
:1059D00009F961688900B9FBF1F16422B1FBF2F2C7
:1059E000192101FB08F861688900B8FBF1F319215E
:1059F0004F4361688900B7FBF1F16427B1FBF7F70A
:105A00007FF0630101FB0733190132316423B1FBDD
:105A1000F3F313F0F00313EB021319214E43616803
:105A20008900B6FBF1F21921484361688900B0FB97
:105A3000F1F06421B0FBF1F17FF0630000FB012283
:105A4000100132306421B0FBF1F010F00F00C318E8
:105A500020688360BDE8F183F369FFFF0010014017
:105A60000014014010B5044610460A46014620467F
:105A700003F04EF9204610BD10B5044603F07CF942
:105A8000204610BD10B50400002C01D101203FE0DC
:105A9000606A00280020A06294F85100002805D117
:105AA000002084F85000200002F0EBFE022084F871
:105AB00051002068006830F040002168086061688B
:105AC000A0680143E0680143206901436069014324
:105AD000A06910F400700143E0690143206A0143AA
