:020000040802F0
:10000000D09000205D090308C1030308C30303085F
:10001000C5030308C7030308C90303080000000061
:10002000000000000000000000000000CB030308F7
:10003000CD03030800000000CF030308D103030829
:10004000AD090308B1090308B5090308B909030894
:10005000BD090308C1090308C5090308C909030844
:10006000CD090308D1090308D5090308D9090308F4
:10007000DD090308E1090308E5090308E9090308A4
:10008000ED090308F1090308F5090308F909030854
:10009000FD090308010A0308050A0308090A030801
:1000A0000D0A0308110A0308150A0308190A0308B0
:1000B0001D0A0308210A0308250A0308290A030860
:1000C0002D0A0308310A0308350A0308390A030810
:1000D0003D0A0308DD030308F303030809040308CA
:1000E000410A0308450A0308490A03084D0A0308A0
:1000F000510A0308550A0308590A03085D0A030850
:10010000610A0308650A0308690A03086D0A0308FF
:100110001F04030835040308710A0308750A03085D
:10012000790A03087D0A0308810A0308850A03087F
:10013000890A03088D0A0308910A0308950A03082F
:10014000990A03089D0A0308A10A03084B0403083F
:10015000A50A0308A90A0308AD0A03085504030801
:10016000B10A0308B50A0308B90A0308BD0A03085F
:10017000C10A0308C50A03080000000000000000CF
:10018000C90A0308CD0A03086304030871040308BD
:10019000D10A0308D50A030800000000D90A0308A1
:1001A0007F0403088D040308000000000000000025
:1001B000DD0A03080000000000000000E10A030857
:1001C000E50A0308E90A0308ED0A0308F10A03082F
:1001D000F50A0308F90A0308DFF8BC04B0F8B00414
:1001E000002804D10020DFF8B014A1F8BA04DFF829
:1001F000A804B0F8BA04212804DB0020DFF8981422
:10020000A1F8BA04DFF894040168DFF88C04B0F8B0
:10021000BA04002816D10800C0B2C92812D1DFF8EC
:100220007804DFF87424B2F8BA24104480F88413F8
:10023000DFF86404B0F8BA04401CDFF85C24A2F8CC
:10024000BA0423E2DFF85004B0F8BA0401281ED142
:100250000800C0B2202807D00800C0B2132803D07D
:100260000800C0B2152812D1DFF82C04DFF82824CA
:10027000B2F8BA24104480F88413DFF81C04B0F8F4
:10028000BA04401CDFF81024A2F8BA04FEE1DFF83B
:10029000080490F88503132840F0F580DFF8F80390
:1002A00090F88403C92840F08F80DFF8EC03B0F8A1
:1002B000BA04022812D1DFF8E003DFF8DC23B2F839
:1002C000BA24104480F88413DFF8CC03B0F8BA04E1
:1002D000401CDFF8C423A2F8BA04D7E1DFF8B80362
:1002E000B0F8BA04032812D1DFF8AC03DFF8A82372
:1002F000B2F8BA24104480F88413DFF89C03B0F8F5
:10030000BA04401CDFF89023A2F8BA04BEE1DFF87B
:100310008803B0F8BA04042812D1DFF87C03DFF8B0
:100320007823B2F8BA24104480F88413DFF8680305
:10033000B0F8BA04401CDFF86023A2F8BA04A5E1C3
:10034000DFF85403B0F8BA04052812D1DFF84803E7
:10035000DFF84423B2F8BA24104480F88413DFF89D
:100360003803B0F8BA04401CDFF82C23A2F8BA0412
:100370008CE1DFF82403B0F8BA0406281EDBDFF8AE
:100380001803DFF81423B2F8BA24104480F8841359
:10039000DFF80403B0F8BA04401CDFF8FC22A2F82E
:1003A000BA04DFF8F402B0F8BA04082840F06E810D
:1003B0000120DFF8E42282F8C40467E10020DFF8BE
:1003C000D822A2F8BA0461E1B348B0F8BA0402280E
:1003D0000ED1B148B04AB2F8BA24104480F8841360
:1003E000AD48B0F8BA04401CAB4AA2F8BA044DE1DB
:1003F000A948B0F8BA0403280ED1A748A64AB2F813
:10040000BA24104480F88413A348B0F8BA04401CFE
:10041000A14AA2F8BA0439E19F48B0F8BA04042806
:100420000ED19D489C4AB2F8BA24104480F8841337
:100430009948B0F8BA04401C974AA2F8BA0425E1DA
:100440009548B0F8BA04052818D19348924AB2F8F2
:10045000BA24104480F884138F48B0F8BA04401CC2
:100460008D4AA2F8BA048C48B0F8BA04062840F0C5
:100470000D810120884A82F8C40407E10020864AE1
:10048000A2F8BA0402E1844890F88503152872D1D5
:100490008148B0F8BA0402280ED17F487E4AB2F8EB
:1004A000BA24104480F884137B48B0F8BA04401C86
:1004B000794AA2F8BA04E9E07748B0F8BA04032808
:1004C0000ED17548744AB2F8BA24104480F88413E7
:1004D0007148B0F8BA04401C6F4AA2F8BA04D5E0DB
:1004E0006D48B0F8BA0404280ED16B486A4AB2F8D5
:1004F000BA24104480F884136748B0F8BA04401C4A
:10050000654AA2F8BA04C1E06348B0F8BA04052805
:100510000ED16148604AB2F8BA24104480F88413BE
:100520005D48B0F8BA04401C5B4AA2F8BA04ADE0DA
:100530005948B0F8BA04062818DB5748564AB2F8AA
:10054000BA24104480F884135348B0F8BA04401C0D
:10055000514AA2F8BA045048B0F8BA04082840F04A
:10056000958001204C4A82F8C4048FE000204A4A5A
:10057000A2F8BA048AE0484890F88503202840F0A1
:1005800081804548B0F8BA0402280ED14248424A58
:10059000B2F8BA24104480F884133F48B0F8BA0483
:1005A000401C3D4AA2F8BA0470E03B48B0F8BA04D7
:1005B00003280ED13848384AB2F8BA24104480F8DB
:1005C00084133548B0F8BA04401C334AA2F8BA0480
:1005D0005CE03148B0F8BA0404280ED12E482E4A07
:1005E000B2F8BA24104480F884132B48B0F8BA0447
:1005F000401C294AA2F8BA0448E02748B0F8BA04D7
:1006000005280ED12448244AB2F8BA24104480F8B0
:1006100084132148B0F8BA04401C1F4AA2F8BA0457
:1006200034E01D48B0F8BA04062826DB1A4890F8D2
:100630008803194A92F8892352EA00221648A0F842
:10064000B8241548144AB2F8BA24104480F8841328
:100650001148B0F8BA04401C0F4AA2F8BA040E4878
:10066000B0F8BA040C4AB2F8B824083290420DD15E
:100670000120094A82F8C40408E00020064AA2F8D2
:10068000BA0403E00020044AA2F8BA040520024A92
:10069000A2F8B004704700002C00002004100140B4
:1006A0002DE9FE4F0400A2781202E1780A43ADF86A
:1006B0000820A1788DF80010E6789DF80010002938
:1006C00060D1DFF8701C0F00DFF86C1C88466421D5
:1006D0000D006521DFF8642C82F82C111321DFF85E
:1006E0005C2C82F82D11A178DFF8502C82F82E11A5
:1006F000E178DFF8482C82F82F11290089B2090A25
:10070000DFF8382C82F83011DFF8301C81F83151D5
:10071000DFF82CAC002189464846290080B289B216
:10072000884213D2388880B2000A8AF800001AF191
:1007300001003988017010F1010A3888A8F800001A
:10074000BF1C18F1020819F10209E5E7A91D89B2D9
:10075000DFF8F00B02F046FDADF80200BDF8020034
:1007600080B2000A8AF800001AF10100BDF80210F8
:100770000170401C15F10801DFF8C02BA2F8B61477
:1007800000F0D6BD9DF80010012940F01E846521BF
:10079000DFF8A82B82F82C111321DFF8A02B82F8A8
:1007A0002D11A178DFF8942B82F82E11E178DFF873
:1007B0008C2B82F82F110021DFF8802B82F830116A
:1007C0006221DFF8782B82F83111DFF874AB062153
:1007D000DFF8682BA2F8B6143000C0B2622880F2AD
:1007E000D4833000C0B200284AD006286CD00A2832
:1007F00000F08F800C2800F0AD80122800F0CF8030
:10080000222800F0F180322800F01481362800F010
:100810003781382800F05581392800F06C813A285A
:1008200000F083813E2800F0A681422800F0C981B3
:10083000462800F0EC814A2800F00F824E2800F094
:100840003282502800F05282522800F072825428DE
:1008500000F09282562800F0B282582800F0D2822E
:100860005A2800F0F2825C2800F012835E2800F023
:1008700032835F2800F04983602800F0608381E3C1
:1008800000208146484680B206280BDADFF8B80A15
:10089000494689B2405C8AF800001AF1010A19F150
:1008A0000109EFE7DFF8940AB0F8B604801DDFF81D
:1008B0008C1AA1F8B604B61D0622DFF8901ADFF8EC
:1008C000880A02F0EEFC87E700208146484680B2A5
:1008D00004280CDADFF8700A494689B208448079A6
:1008E0008AF800001AF1010A19F10109EEE7DFF8B0
:1008F0004C0AB0F8B604001DDFF8401AA1F8B6049F
:10090000361D0422DFF8481ADFF8480A02F0C9FC55
:1009100062E7DFF8340A408980B2000A8AF80000F2
:100920001AF10100DFF8201A4989017010F1010A5B
:10093000DFF8080AB0F8B604801CDFF8001AA1F846
:10094000B604B61C0222DFF8101ADFF8100A02F013
:10095000A8FC41E700208146484680B206280CDA10
:10096000DFF8E409494689B20844007B8AF80000B0
:100970001AF1010A19F10109EEE7DFF8C009B0F830
:10098000B604801DDFF8B419A1F8B604B61D06221E
:10099000DFF8CC19DFF8CC0902F083FC1CE700205B
:1009A0008146484680B210280CDADFF89C09494697
:1009B00089B20844807C8AF800001AF1010A19F112
:1009C0000109EEE7DFF87409B0F8B6041030DFF87B
:1009D0006C19A1F8B60410361022DFF88C19DFF874
:1009E0008C0902F05EFCF7E600208146484680B2A2
:1009F00010280DDADFF85009494689B2084490F80A
:100A000022008AF800001AF1010A19F10109EDE744
:100A1000DFF82809B0F8B6041030DFF82019A1F883
:100A2000B60410361022DFF84819DFF8480902F042
:100A300038FCD1E600208146484680B204280DDA11
:100A4000DFF80409494689B2084490F832008AF870
:100A500000001AF1010A19F10109EDE7DFF8DC08DD
:100A6000B0F8B604001DDFF8D418A1F8B604361D9E
:100A70000422DFF80419DFF8040902F012FCABE6E7
:100A8000DFF8C408C08E80B2000A8AF800001AF1AC
:100A90000100DFF8B418C98E017010F1010ADFF807
:100AA0009C08B0F8B604801CDFF89018A1F8B604D2
:100AB000B61C0222DFF8C818DFF8C80802F0F1FB04
:100AC0008AE6DFF8840890F838008AF800001AF106
:100AD000010ADFF86808B0F8B604401CDFF85C18BB
:100AE000A1F8B604761C0122DFF89C18DFF89C08F8
:100AF00002F0D7FB70E6DFF8500890F839008AF86A
:100B000000001AF1010ADFF83408B0F8B604401CFE
:100B1000DFF82818A1F8B604761C0122DFF8701857
:100B2000DFF8700802F0BDFB56E60020814648461B
:100B300080B204280DDADFF81008494689B208446B
:100B400090F83A008AF800001AF1010A19F1010937
:100B5000EDE7DFF8E807B0F8B604001DDFF8DC17B2
:100B6000A1F8B604361D0422DFF82C18DFF82C0893
:100B700002F097FB30E600208146484680B2042808
:100B80000DDADFF8C407494689B2084490F83E0000
:100B90008AF800001AF1010A19F10109EDE7DFF8FE
:100BA0009C07B0F8B604001DDFF89017A1F8B60452
:100BB000361D0422DFF8E817DFF8E80702F071FBC2
:100BC0000AE600208146484680B204280DDADFF8A4
:100BD0007807494689B2084490F842008AF8000034
:100BE0001AF1010A19F10109EDE7DFF85007B0F831
:100BF000B604001DDFF84417A1F8B604361D042220
:100C0000DFF8A417DFF8A40702F04BFBE4E50020AF
:100C10008146484680B204280DDADFF82C074946A1
:100C200089B2084490F846008AF800001AF1010AD7
:100C300019F10109EDE7DFF80407B0F8B604001D6B
:100C4000DFF8F816A1F8B604361D0422DFF86017A5
:100C5000DFF8600702F025FBBEE50020814648462C
:100C600080B204280DDADFF8E006494689B208446C
:100C700090F84A008AF800001AF1010A19F10109F6
:100C8000EDE7DFF8B806B0F8B604001DDFF8AC16E3
:100C9000A1F8B604361D0422DFF81C17DFF81C0784
:100CA00002F0FFFA98E5DFF8A006B0F84E0080B237
:100CB000000A8AF800001AF10100DFF88C16B1F87A
:100CC0004E10017010F1010ADFF87006B0F8B6049A
:100CD000801CDFF86816A1F8B604B61C0222DFF803
:100CE000E016DFF8E00602F0DCFA75E5DFF85806FA
:100CF000B0F8500080B2000A8AF800001AF1010032
:100D0000DFF84416B1F85010017010F1010ADFF855
:100D10002C06B0F8B604801CDFF82016A1F8B60443
:100D2000B61C0222DFF8A016DFF8A00602F0B9FA1E
:100D300052E5DFF81406B0F8520080B2000A8AF8D3
:100D400000001AF10100DFF80016B1F8521001702E
:100D500010F1010ADFF8E405B0F8B604801CDFF8F2
:100D6000DC15A1F8B604B61C0222DFF86416DFF821
:100D7000640602F096FA2FE5DFF8CC05B0F85400CF
:100D800080B2000A8AF800001AF10100DFF8B815F5
:100D9000B1F85410017010F1010ADFF8A005B0F8A5
:100DA000B604801CDFF89415A1F8B604B61C022224
:100DB000DFF82416DFF8240602F073FA0CE5DFF8FA
:100DC0008805B0F8560080B2000A8AF800001AF1CF
:100DD0000100DFF87415B1F85610017010F1010A26
:100DE000DFF85805B0F8B604801CDFF85015A1F8FC
:100DF000B604B61C0222DFF8E815DFF8E80502F0B9
:100E000050FAE9E4DFF84005B0F8580080B2000A73
:100E10008AF800001AF10100DFF82C15B1F858101B
:100E2000017010F1010ADFF81405B0F8B604801C57
:100E3000DFF80815A1F8B604B61C0222DFF8A815E1
:100E4000DFF8A80502F02DFAC6E4DFF8FC04B0F8DC
:100E50005A0080B2000A8AF800001AF10100DFF897
:100E6000E814B1F85A10017010F1010ADFF8CC044F
:100E7000B0F8B604801CDFF8C414A1F8B604B61CA0
:100E80000222DFF86C15DFF86C0502F00AFAA3E421
:100E9000DFF8B404B0F85C0080B2000A8AF8000001
:100EA0001AF10100DFF8A014B1F85C10017010F124
:100EB000010ADFF88804B0F8B604801CDFF87C145F
:100EC000A1F8B604B61C0222DFF82C15DFF82C05B9
:100ED00002F0E7F980E4DFF8700490F85E008AF829
:100EE00000001AF1010ADFF85404B0F8B604401CFF
:100EF000DFF84814A1F8B604761C0122DFF80015CB
:100F0000DFF8000502F0CDF966E4DFF83C0490F864
:100F10005F008AF800001AF1010ADFF82004B0F837
:100F2000B604401CDFF81414A1F8B604761C0122A4
:100F3000DFF8D414DFF8D40402F0B3F94CE4DFF89E
:100F40000804B0F8600080B2000A8AF800001AF1C4
:100F50000100DFF8F413B1F86010017010F1010A1C
:100F6000DFF8D803B0F8B604801CDFF8D013A1F87E
:100F7000B604B61C0222DFF89814DFF8980402F0D9
:100F800090F929E46220060026E4DFF8B003B0F807
:100F9000B614DFF8B00302F025F9ADF80200BDF891
:100FA000020080B2000A8AF800001AF10100BDF8C0
:100FB00002100170401CDFF88413B1F8B614891CCC
:100FC000DFF87823A2F8B614B2E19DF800101129D9
:100FD0006BDB9DF800101D2967DADFF83C249DF8D3
:100FE0000030A6214B4302EB0301A1F606310F00AE
:100FF000DFF828249DF80030A6214B4302EB0301C3
:10100000A1F606318846A6210D006521CB4A82F85B
:101010002C111321C94A82F82D11A178C74A82F8F0
:101020002E11E178C54A82F82F11290089B2090AE8
:10103000C24A82F83011C14981F83151DFF800A36A
:10104000002189464846290080B289B2884213D2DD
:10105000388880B2000A8AF800001AF10100398845
:10106000017010F1010A3888A8F80000BF1C18F1BF
:10107000020819F10209E5E7A91D89B2B14802F099
:10108000B1F8ADF80200BDF8020080B2000A8AF89B
:1010900000001AF10100BDF802100170401C15F1AA
:1010A0000801A64AA2F8B61442E19DF800103129C1
:1010B00067DB9DF800103D2963DAD94A9DF80030BE
:1010C00048214B4302EB0301A1F6C8518B46D54A98
:1010D0009DF8003048214B4302EB0301A1F6C851B3
:1010E000019148210D006521944A82F82C111321A9
:1010F000924A82F82D11A178904A82F82E11E17857
:101100008E4A82F82F11290089B2090A8B4A82F887
:1011100030118A4981F83151DFF824A20021894633
:101120004846290080B289B2884211D29BF800005B
:101130008AF800001AF1010A9BF800000199087072
:101140001BF1010B0198401C019019F10109E7E71F
:10115000A91D89B27B4802F045F8ADF80200BDF840
:10116000020080B2000A8AF800001AF10100BDF8FE
:1011700002100170401C15F10801704AA2F8B61463
:10118000D6E09DF80010E02969DB9DF80010F029F9
:1011900065DAA54A9DF8003006214B4302EB0301B6
:1011A000B1F5A8610F00A14A9DF8003006214B431C
:1011B00002EB0301B1F5A861884606210D00652107
:1011C0005E4A82F82C1113215C4A82F82D11A17815
:1011D0005A4A82F82E11E178584A82F82F112900D4
:1011E00089B2090A554A82F83011544981F83151BF
:1011F000DFF84CA1002189464846290080B289B217
:10120000884213D2388880B2000A8AF800001AF1A6
:1012100001003988017010F1010A3888A8F800002F
:10122000BF1C18F1020819F10209E5E7A91D89B2EE
:10123000444801F0D7FFADF80200BDF8020080B2CB
:10124000000A8AF800001AF10100BDF802100170CE
:10125000401C15F10801394AA2F8B61468E09DF85F
:101260000010F02964DB724A9DF8003022214B43C4
:1012700002EB0301B1F5FF510F006E4A9DF80030FB
:1012800022214B4302EB0301B1F5FF518846222195
:101290000D006521294A82F82C111321274A82F872
:1012A0002D11A178254A82F82E11E178234A82F87F
:1012B0002F11290089B2090A204A82F830111F49EA
:1012C00081F83151DFF878A000218946484629008D
:1012D00080B289B2884213D2388880B2000A8AF874
:1012E00000001AF101003988017010F1010A3888F4
:1012F000A8F80000BF1C18F1020819F10209E5E77F
:10130000A91D89B20F4801F06DFFADF80200BDF8CC
:10131000020080B2000A8AF800001AF10100BDF84C
:1013200002100170401C15F10801044AA2F8B6141D
:10133000BDE8F78F2C780020907800202C0000204A
:101340005E0100205801002058790020BC7900205F
:10135000C27900205E790020C679002062790020E1
:10136000C879002064790020CE7900206A790020B5
:10137000DE7900207A790020EE7900208A79002039
:10138000F27900208E790020F479002090790020F5
:10139000F579002091790020F679002092790020DB
:1013A000FA79002096790020FE7900209A790020B1
:1013B000027A00209E790020067A0020A27900207F
:1013C0000A7A0020A67900200C7A0020A879002053
:1013D0000E7A0020AA790020107A0020AC79002033
:1013E000127A0020AE790020147A0020B079002013
:1013F000167A0020B2790020187A0020B4790020F3
:101400001A7A0020B67900201B7A0020B7790020D4
:101410001C7A0020B879002060300020C03A0020FB
:10142000804F002000540020847A0020E47A0020BD
:10143000546C0020746E00202DE9F14F82B00299A7
:1014400091F802905FEA09290299C97851EA0909DD
:1014500002998D78029991F803A02900C9B2002958
:1014600040F0B180DFF8881D0F00DFF8881D884646
:101470006421ADF802106521DFF87C2D82F82C1173
:101480001521DFF8742D82F82D11DFF8706D002121
:10149000DFF8642DA2F8B6140021894600218A469F
:1014A00000218B465846BDF8021080B2884231D2E6
:1014B0005046C0B2BDF8021080B288422AD23888A5
:1014C000B8F80010884218D0484680B2000A307040
:1014D000701C80F80090401C398889B2090A01709C
:1014E000401C39880170461CDFF80C0DB0F8B604BA
:1014F000001DDFF8041DA1F8B6043888A8F8000024
:10150000BF1C18F1020819F102091AF1020A1BF1B5
:10151000020BC7E7DFF8E00CB0F8B604002818D1DA
:10152000DFF8CC0C07003570701C00210170401CE6
:10153000398889B2090A0170401C39880170461C3B
:10154000DFF8B40CB0F8B604001DDFF8AC1CA1F84D
:10155000B604DFF8A40CB0F8B60480B2000ADFF8D5
:10156000981C81F82E01DFF8900CB0F8B604DFF873
:10157000881C81F82F01DFF8800CB0F8B604001D3C
:10158000DFF8741CA1F8B604DFF86C0CB0F8B614E0
:10159000DFF8480D01F026FEADF80000BDF80000B0
:1015A00080B2000A3070701CBDF800100170401C41
:1015B000DFF8441CB1F8B614891CDFF83C2CA2F803
:1015C000B61401F094B92900C9B2012940F040874E
:1015D0006221ADF802106521DFF81C2C82F82C1175
:1015E0001521DFF8142C82F82D11DFF8106C002182
:1015F000DFF8042CA2F8B6144FF48071894600215C
:101600008A465046C0B2622880F2B4865046C0B2C4
:1016100000284CD0062800F08A800A2800F0C880F4
:101620000C2800F00181122800F03F81222800F0F0
:101630007D81322800F0BC81362800F0FB813828FB
:1016400000F03482392800F067823A2800F09A824C
:101650003E2800F0D982422800F01883462800F086
:1016600057834A2800F096834E2800F0D6835028EE
:1016700000F01284522800F04B84542800F0848437
:10168000562800F0BB84582800F0F2845A2800F055
:1016900029855C2800F060855E2800F097855F282A
:1016A00000F0D385602800F0078600F05FBE0622B8
:1016B000DFF82C1CDFF82C0C01F0FEFD04002000EC
:1016C000C0B2002804D119F106091AF1060A98E7F8
:1016D000484680B2000A3070701C80F80090461CAA
:1016E000DFF8140BB0F8B604801CDFF80C1BA1F86F
:1016F000B60400208346584680B2062809DADFF88F
:10170000E40B594689B2405C3070761C1BF1010B2A
:10171000F1E7DFF8E40AB0F8B604801DDFF8D81A64
:10172000A1F8B60419F106091AF1060A69E70422BC
:10173000DFF8B41BDFF8B40B01F0BEFD040020009D
:10174000C0B2002804D119F104091AF1040A58E7BB
:10175000484680B2000A3070701C80F80090461C29
:10176000DFF8940AB0F8B604801CDFF88C1AA1F8F0
:10177000B60400208346584680B204280ADADFF80F
:10178000640B594689B2084480793070761C1BF18D
:10179000010BF0E7DFF8600AB0F8B604001DDFF8CF
:1017A000581AA1F8B60419F104091AF1040A28E735
:1017B0000222DFF83C1BDFF83C0B01F07DFD04004A
:1017C0002000C0B2002804D119F102091AF1020A5E
:1017D00017E7484680B2000A3070701C80F800900D
:1017E000401CDFF8141AB1F8B614891CDFF8082A77
:1017F000A2F8B614DFF8EC1A498989B2090A017017
:10180000401CDFF8E01A49890170461CDFF8E8093E
:10181000B0F8B604801CDFF8E019A1F8B60419F19D
:1018200002091AF1020AECE60622DFF8CC1ADFF808
:10183000CC0A01F041FD04002000C0B2002804D110
:1018400019F106091AF1060ADBE6484680B2000AD9
:101850003070701C80F80090461CDFF89C09B0F8CE
:10186000B604801CDFF89019A1F8B6040020834666
:10187000584680B206280ADADFF8680A594689B263
:101880000844007B3070761C1BF1010BF0E7DFF899
:101890006809B0F8B604801DDFF85C19A1F8B60439
:1018A00019F106091AF1060AABE61022DFF8501A00
:1018B000DFF8500A01F000FD04002000C0B200284B
:1018C00004D119F110091AF1100A9AE6484680B2BB
:1018D000000A3070701C80F80090461CDFF8180970
:1018E000B0F8B604801CDFF81019A1F8B604002087
:1018F0008346584680B210280ADADFF8E8095946CC
:1019000089B20844807C3070761C1BF1010BF0E733
:10191000DFF8E408B0F8B6041030DFF8DC18A1F8FE
:10192000B60419F110091AF1100A6AE61022DFF85C
:10193000D819DFF8D80901F0BFFC04002000C0B2BC
:10194000002804D119F110091AF1100A59E6484685
:1019500080B2000A3070701C80F80090461CDFF8DE
:101960009808B0F8B604801CDFF88C18A1F8B6040B
:1019700000208346584680B210280BDADFF864094D
:10198000594689B2084490F822003070761C1BF149
:10199000010BEFE7DFF86008B0F8B6041030DFF8AD
:1019A0005818A1F8B60419F110091AF1100A28E61E
:1019B0000422DFF8B41DDFF8B40D01F07DFC040053
:1019C0002000C0B2002804D119F104091AF1040A58
:1019D00017E6484680B2000A3070701C80F800900C
:1019E000461CDFF81408B0F8B604801CDFF80818AD
:1019F000A1F8B60400208346584680B204280BDACA
:101A0000DFF8E008594689B2084490F83200307097
:101A1000761C1BF1010BEFE7DFF8DC07B0F8B6042A
:101A2000001DDFF8D417A1F8B60419F104091AF162
:101A3000040AE6E50222DFF8381DDFF8380D01F070
:101A40003BFC04002000C0B2002804D119F10209B7
:101A50001AF1020AD5E5484680B2000A3070701CBF
:101A600080F80090401CDFF89017B1F8B614891C7C
:101A7000DFF88427A2F8B614DFF86818C98E89B297
:101A8000090A0170401CDFF85C18C98E0170461C01
:101A9000DFF86407B0F8B604801CDFF85C17A1F823
:101AA000B60419F102091AF1020AAAE50122DFF8C7
:101AB000C81CDFF8C80C01F0FFFB04002000C0B216
:101AC000002804D119F101091AF1010A99E54846E3
:101AD00080B2000A3070701C80F80090401CDFF863
:101AE0001817B1F8B614891CDFF80C27A2F8B61441
:101AF000DFF8F01791F838100170461CDFF8F8068F
:101B0000B0F8B604401CDFF8F016A1F8B60419F1DD
:101B100001091AF1010A74E50122DFF8D81DDFF886
:101B2000D80D01F0C9FB04002000C0B2002804D188
:101B300019F101091AF1010A63E5484680B2000A69
:101B40003070701C80F80090401CDFF8AC16B1F8C3
:101B5000B614891CDFF8A026A2F8B614DFF88417A3
:101B600091F839100170461CDFF88C06B0F8B60405
:101B7000401CDFF88416A1F8B60419F101091AF126
:101B8000010A3EE50422DFF8741DDFF8740D01F050
:101B900093FB04002000C0B2002804D119F104090D
:101BA0001AF1040A2DE5484680B2000A3070701C14
:101BB00080F80090461CDFF84006B0F8B604801CA0
:101BC000DFF83416A1F8B60400208346584680B2E8
:101BD00004280BDADFF80C07594689B2084490F85C
:101BE0003A003070761C1BF1010BEFE7DFF80806B6
:101BF000B0F8B604001DDFF80016A1F8B60419F11C
:101C000004091AF1040AFCE40422DFF8F81CDFF8E6
:101C1000F80C01F051FB04002000C0B2002804D1F0
:101C200019F104091AF1040AEBE4484680B2000AEB
:101C30003070701C80F80090461CDFF8BC05B0F8CE
:101C4000B604801CDFF8B015A1F8B6040020834666
:101C5000584680B204280BDADFF88806594689B264
:101C6000084490F83E003070761C1BF1010BEFE742
:101C7000DFF88405B0F8B604001DDFF87C15A1F884
:101C8000B60419F104091AF1040ABAE40422DFF8CF
:101C90007C1CDFF87C0C01F00FFB04002000C0B2BC
:101CA000002804D119F104091AF1040AA9E44846EC
:101CB00080B2000A3070701C80F80090461CDFF87B
:101CC0003805B0F8B604801CDFF82C15A1F8B6046E
:101CD00000208346584680B204280BDADFF8040659
:101CE000594689B2084490F842003070761C1BF1C6
:101CF000010BEFE7DFF80005B0F8B604001DDFF8D0
:101D0000F814A1F8B60419F104091AF1040A78E4E8
:101D10000422DFF8001CDFF8000C01F0CDFA04000B
:101D20002000C0B2002804D119F104091AF1040AF4
:101D300067E4484680B2000A3070701C80F800905A
:101D4000461CDFF8B404B0F8B604801CDFF8A81411
:101D5000A1F8B60400208346584680B204280BDA66
:101D6000DFF88005594689B2084490F84600307083
:101D7000761C1BF1010BEFE7DFF87C04B0F8B6042A
:101D8000001DDFF87414A1F8B60419F104091AF162
:101D9000040A36E40422DFF8841BDFF8840B01F028
:101DA0008BFA04002000C0B2002804D119F1040904
:101DB0001AF1040A25E4484680B2000A3070701C0B
:101DC00080F80090461CDFF83004B0F8B604801CA0
:101DD000DFF82414A1F8B60400208346584680B2E8
:101DE00004280BDADFF8FC04594689B2084490F85D
:101DF0004A003070761C1BF1010BEFE7DFF8F803A7
:101E0000B0F8B604001DDFF8F013A1F8B60419F11C
:101E100004091AF1040AFFF7F4BB0222DFF8041BDD
:101E2000DFF8040B01F048FA04002000C0B20028DB
:101E300005D119F102091AF1020AFFF7E2BB48467F
:101E400080B2000A3070701C80F80090401CDFF8EF
:101E5000A813B1F8B614891CDFF89C23A2F8B614B5
:101E6000DFF88014B1F84E1089B2090A0170401CE5
:101E7000DFF87014B1F84E100170461CDFF87803DB
:101E8000B0F8B604801CDC49A1F8B60419F10209C7
:101E90001AF1020AFFF7B5BB0222DFF8901ADFF849
:101EA000900A01F009FA04002000C0B2002805D110
:101EB00019F102091AF1020AFFF7A3BB484680B2E2
:101EC000000A3070701C80F80090401CCA49B1F8BC
:101ED000B614891CC84AA2F8B614DFF80814B1F881
:101EE000501089B2090A0170401CDFF8F813B1F8EC
:101EF00050100170461CC048B0F8B604801CBE49A2
:101F0000A1F8B60419F102091AF1020AFFF779BB28
:101F10000222DFF8201ADFF8200A01F0CDF90400D0
:101F20002000C0B2002805D119F102091AF1020AF5
:101F3000FFF767BB484680B2000A3070701C80F81B
:101F40000090401CAC49B1F8B614891CAA4AA2F80A
:101F5000B614DFF89013B1F8521089B2090A017073
:101F6000401CDFF88013B1F852100170461CA248E3
:101F7000B0F8B604801CA049A1F8B60419F1020912
:101F80001AF1020AFFF73DBB0222DFF8B019DFF8B1
:101F9000B00901F091F904002000C0B2002805D179
:101FA00019F102091AF1020AFFF72BBB484680B269
:101FB000000A3070701C80F80090401C8E49B1F807
:101FC000B614891C8C4AA2F8B614C649B1F854104C
:101FD00089B2090A0170401CC249B1F8541001705D
:101FE000461C8548B0F8B604801C8349A1F8B604A5
:101FF00019F102091AF1020AFFF703BB0222DFF806
:102000004419DFF8440901F057F904002000C0B278
:10201000002805D119F102091AF1020AFFF7F1BAF5
:10202000484680B2000A3070701C80F80090401C56
:102030007149B1F8B614891C6F4AA2F8B614A949BF
:10204000B1F8561089B2090A0170401CA549B1F8CF
:1020500056100170461C6848B0F8B604801C6649EA
:10206000A1F8B60419F102091AF1020AFFF7C9BA78
:102070000222DFF8D818DFF8D80801F01DF90400B3
:102080002000C0B2002805D119F102091AF1020A94
:10209000FFF7B7BA484680B2000A3070701C80F86B
:1020A0000090401C5449B1F8B614891C524AA2F859
:1020B000B6148C49B1F8581089B2090A0170401C55
:1020C0008849B1F858100170461C4B48B0F8B60466
:1020D000801C4949A1F8B60419F102091AF1020A53
:1020E000FFF78FBA0222DFF86C18DFF86C0801F0F6
:1020F000E3F804002000C0B2002805D119F102095C
:102100001AF1020AFFF77DBA484680B2000A307021
:10211000701C80F80090401C3749B1F8B614891C37
:10212000354AA2F8B6146F49B1F85A1089B2090AB3
:102130000170401C6B49B1F85A100170461C2E48C2
:10214000B0F8B604801C2C49A1F8B60419F10209B4
:102150001AF1020AFFF755BA0222DFF80018DFF879
:10216000000801F0A9F804002000C0B2002805D141
:1021700019F102091AF1020AFFF743BA484680B280
:10218000000A3070701C80F80090401C1A49B1F8A9
:10219000B614891C184AA2F8B6145249B1F85C105A
:1021A00089B2090A0170401C4E49B1F85C100170F7
:1021B000461C1148B0F8B604801C0F49A1F8B604BB
:1021C00019F102091AF1020AFFF71BBA0122DFF81E
:1021D0009417DFF8940701F06FF804002000C0B2F4
:1021E00000280DD119F101091AF1010AFFF709BA06
:1021F0002C780020907800202C0000205C0100202A
:10220000484680B2000A3070701C80F80090401C74
:10221000DFF85817B1F8B614891CDFF85027A2F878
:10222000B614304991F85E100170461CDFF83C0787
:10223000B0F8B604401CDFF83417A1F8B60419F161
:1022400001091AF1010AFFF7DCB90122DFF82017B2
:10225000DFF8200701F030F804002000C0B20028A9
:1022600005D119F101091AF1010AFFF7CAB9484667
:1022700080B2000A3070701C80F80090401CDFF8BB
:10228000EC16B1F8B614891CDFF8E026A2F8B614F3
:10229000144991F85F100170461CDFF8D006B0F8C1
:1022A000B604401CDFF8C416A1F8B60419F1010900
:1022B0001AF1010AFFF7A5B90222DFF8BC16DFF810
:1022C000BC0600F0F9FF04002000C0B200281FD1B6
:1022D00019F102091AF1020AFFF793B95801002017
:1022E000BC79002058790020C27900205E79002056
:1022F000C679002062790020C87900206479002026
:10230000CE7900206A790020DE7900207A790020D9
:10231000484680B2000A3070701C80F80090401C63
:10232000DFF84816B1F8B614891CDFF84026A2F889
:10233000B614DFF84C16B1F8601089B2090A0170C2
:10234000401CDFF83C16B1F860100170461CDFF845
:102350001C06B0F8B604801CDFF81016A1F8B6040D
:1023600019F102091AF1020AFFF74BB962208246FD
:10237000FFF747B9DFF8F405B0F8B60400282ED10E
:10238000DFF8FC0507003570701C00210170401C4F
:10239000DFF8EC1509780170401CDFF8E415497886
:1023A0000170401CDFF8D81589780170401CDFF8F7
:1023B000D015C9780170401CDFF8C4150979017087
:1023C000401CDFF8BC1549790170461CDFF89C05FC
:1023D000B0F8B6040830DFF89415A1F8B604DFF8B9
:1023E0008C05B0F8B60480B2000ADFF8801581F8D9
:1023F0002E01DFF87805B0F8B604DFF8701581F823
:102400002F01DFF86805B0F8B604001DDFF85C1591
:10241000A1F8B604DFF85405B0F8B614DFF8940C50
:1024200000F0E0FEADF80000BDF8000080B2000A48
:102430003070701CBDF800100170401CDFF82C15C6
:10244000B1F8B614891CDFF82425A2F8B6144EE2C0
:102450002900C9B21129C0F2C9802900C9B21D29B9
:1024600080F2C480DFF8502C2B00DBB2A6214B4356
:1024700002EB0301A1F606310F00DFF8402C2B0020
:10248000DBB2A6214B4302EB0301A1F606318846DD
:10249000A621ADF802106521DFF8D02482F82C11B6
:1024A0001521DFF8C82482F82D11DFF8146C002103
:1024B000DFF8B824A2F8B61400218B465846BDF8C0
:1024C000021080B2884231D25046C0B2BDF802102C
:1024D00080B288422AD23888B8F80010884218D0D2
:1024E000484680B2000A3070701C80F80090401C92
:1024F000398889B2090A0170401C39880170461C6C
:10250000DFF86804B0F8B604001DDFF86014A1F825
:10251000B6043888A8F80000BF1C18F1020819F1A9
:1025200002091AF1020A1BF1020BC7E7DFF83C04AB
:10253000B0F8B604002820D1DFF87C1B2A00D2B204
:10254000A620424301EB0200A0F6063007003570DA
:10255000701C00210170401C398889B2090A017081
:10256000401C39880170461CDFF80004B0F8B6043E
:10257000001DDFF8F813A1F8B604DFF8F003B0F897
:10258000B60480B2000ADFF8E41381F82E01DFF808
:10259000DC03B0F8B604DFF8D41381F82F01DFF8BC
:1025A000CC03B0F8B604001DDFF8C013A1F8B604E0
:1025B000DFF8B803B0F8B614DFF8F80A00F012FE3E
:1025C000ADF80000BDF8000080B2000A3070701C49
:1025D000BDF800100170401CDFF89013B1F8B6147C
:1025E000891CDFF88823A2F8B61480E12900C9B25B
:1025F000E029C0F2C5802900C9B2F02980F2C0806C
:10260000DFF8942B2B00DBB206214B4302EB0301D6
:10261000B1F5A8610F00DFF8842B2B00DBB2062197
:102620004B4302EB0301B1F5A86188460621ADF8E2
:1026300002106521CD4A82F82C111521CB4A82F86F
:102640002D11DFF87C6A0021C84AA2F8B6140021D7
:102650008B465846BDF8021080B288422FD25046B1
:10266000C0B2BDF8021080B2884228D23888B8F8CB
:102670000010884216D0484680B2000A3070701CA4
:1026800080F80090401C398889B2090A0170401C0A
:1026900039880170461CB548B0F8B604001DB3492E
:1026A000A1F8B6043888A8F80000BF1C18F1020889
:1026B00019F102091AF1020A1BF1020BC9E7AB4832
:1026C000B0F8B60400281ED1DFF8CC1A2A00D2B226
:1026D0000620424301EB0200B0F5A8600700357008
:1026E000701C00210170401C398889B2090A0170F0
:1026F000401C39880170461C9C48B0F8B604001D87
:102700009A49A1F8B6049948B0F8B60480B2000A14
:10271000964981F82E019548B0F8B604934981F89E
:102720002F019248B0F8B604001D9049A1F8B604F4
:102730008E48B0F8B614DFF87C0900F053FDADF810
:102740000000BDF8000080B2000A3070701CBDF8B7
:1027500000100170401C8549B1F8B614891C834AE9
:10276000A2F8B614C3E000BFEE7900208A790020F9
:10277000F27900208E790020F479002090790020F1
:102780002900C9B2F029C0F2B280DFF8142A2B0068
:10279000DBB222214B4302EB0301B1F5FF510F00E5
:1027A000DFF8002A2B00DBB222214B4302EB0301AE
:1027B000B1F5FF5188462221ADF8021065216B4A20
:1027C00082F82C111521694A82F82D11DFF8F06882
:1027D0000021664AA2F8B61400218B465846BDF87F
:1027E000021080B288422FD25046C0B2BDF802100B
:1027F00080B2884228D23888B8F80010884216D0B3
:10280000484680B2000A3070701C80F80090401C6E
:10281000398889B2090A0170401C39880170461C48
:102820005248B0F8B604001D5049A1F8B6043888E3
:10283000A8F80000BF1C18F1020819F102091AF1EA
:10284000020A1BF1020BC9E74848B0F8B604002899
:102850001ED1DFF84C192A00D2B22220424301EBEC
:102860000200B0F5FF5007003570701C00210170A8
:10287000401C398889B2090A0170401C39880170EE
:10288000461C3A48B0F8B604001D3849A1F8B60411
:102890003648B0F8B60480B2000A344981F82E01F7
:1028A0003248B0F8B604314981F82F012F48B0F80A
:1028B000B604001D2D49A1F8B6042C48B0F8B61492
:1028C000DFF8F00700F08EFCADF80000BDF8000066
:1028D00080B2000A3070701CBDF800100170401CFE
:1028E0002249B1F8B614891C204AA2F8B614BDE8F2
:1028F000F78F00BFF579002091790020F67900204C
:1029000092790020FA79002096790020FE79002043
:102910009A790020027A00209E790020067A002011
:10292000A27900200A7A0020A67900200C7A0020E3
:10293000A87900200E7A0020AA790020107A0020C1
:10294000AC790020127A0020AE790020147A0020A1
:10295000B0790020167A0020B2790020187A002081
:10296000B47900201A7A0020B67900202C000020CB
:102970001B7A0020B77900201C7A0020B87900204B
:10298000587900202DE9F84F84B00400002594F810
:1029900002B05FEA0B2BE07850EA0B0BA0788DF8C1
:1029A000000094F803809DF80000002840F08A8021
:1029B0002179090260790143ADF80610BDF80600DF
:1029C000022190FBF1F0ADF80C00DFF8DC07642188
:1029D000ADF808104146C9B2022291FBF2F100EBBA
:1029E0004100070006200600002082465046BDF840
:1029F0000C1080B288425DD24046C0B2BDF80810CB
:102A000080B2884256D2300080B2205CADF802001D
:102A1000761CBDF802000002ADF80200BDF80210FD
:102A2000300080B2205C0143ADF80210761C4046B5
:102A3000C0B25C2802DB0120050032E04046C0B293
:102A40005A280FD1BDF80200642804D100F04AFCD6
:102A500000F013FF25E0BDF80200652821D100F049
:102A60000CFF1EE04046C0B25A281ADA4046C0B2F7
:102A700042280FD10020DFF83017A1F846000020CF
:102A8000DFF82417A1F848000422DFF820174620B9
:102A900000F04DFF02220DF102014046C0B200F0ED
:102AA00046FFBDF802003880BF1C18F102081AF179
:102AB000010A9BE72800C0B2002800F0DB8201F089
:102AC00052FAD7E29DF80000012840F038822179BF
:102AD000090260790143ADF80610BDF8060050FA0E
:102AE00088F0ADF80A00A01D81464046C0B2BDF88E
:102AF0000A1080B2884280F01B824046C0B2002893
:102B000048D006285BD00A286FD00C2879D012282C
:102B100000F08D80222800F0A980322800F0BD80CE
:102B2000362800F0D180382800F0DA80392800F00B
:102B3000E2803A2800F0EA803E2800F0FE80422839
:102B400000F01281462800F026814A2800F03A81E0
:102B50004E2800F05881502800F06281522800F081
:102B60006C81542800F07681562800F08081582826
:102B700000F097815A2800F0A0815C2800F0A9811C
:102B80005E2800F0B2815F2800F0B981602800F073
:102B9000C081CAE100208246504680B206280BDA86
:102BA00099F80000DFF80816524692B2885419F1DD
:102BB00001091AF1010AEFE718F1060895E700206C
:102BC0008246504680B204280CDA99F80000DFF8FB
:102BD000E015524692B21144887119F101091AF1B7
:102BE000010AEEE718F104087FE70221484600F0E9
:102BF00035FBDFF8BC15488119F1020918F102080C
:102C000073E700208246504680B206280CDA99F815
:102C10000000DFF89C15524692B21144087319F176
:102C200001091AF1010AEEE718F106085DE7002034
:102C30008246504680B2102815DA99F80000DFF875
:102C40007015524692B21144887419F10100DFF8F0
:102C50006015524692B21144897C017010F101094D
:102C60001AF1010AE5E718F110083EE70020824654
:102C7000504680B210280DDA99F80000DFF83015C0
:102C8000524692B2114481F8220019F101091AF159
:102C9000010AEDE718F1100827E7002082465046A8
:102CA00080B204280DDA99F80000DFF804155246C6
:102CB00092B2114481F8320019F101091AF1010AA6
:102CC000EDE718F1040810E70221484600F0C6FAC3
:102CD000DFF8DC14C88619F1020918F1020804E7CC
:102CE00099F80000DFF8C81481F8380019F10109DB
:102CF00018F10108F9E699F80000DFF8B41481F83A
:102D0000390019F1010918F10108EEE600208246A8
:102D1000504680B204280DDA99F80000DFF89014CC
:102D2000524692B2114481F83A0019F101091AF1A0
:102D3000010AEDE718F10408D7E600208246504664
:102D400080B204280DDA99F80000DFF864145246C6
:102D500092B2114481F83E0019F101091AF1010AF9
:102D6000EDE718F10408C0E600208246504680B224
:102D700004280DDA99F80000DFF83414524692B2B4
:102D8000114481F8420019F101091AF1010AEDE735
:102D900018F10408A9E600208246504680B20428B3
:102DA0000DDA99F80000DFF80814524692B2114487
:102DB00081F8460019F101091AF1010AEDE718F14D
:102DC000040892E600208246504680B2042817DAB2
:102DD00099F80000DFF8D813524692B2114481F8F6
:102DE0004A0019F10100DFF8C813524692B21144AB
:102DF00091F84A10017010F101091AF1010AE3E794
:102E000018F1040871E60221484600F027FADFF8BD
:102E1000A013A1F84E0019F1020918F1020864E6A6
:102E20000221484600F01AFADFF88413A1F8500096
:102E300019F1020918F1020857E60221484600F08C
:102E40000DFADFF86C13A1F8520019F1020918F11C
:102E500002084AE60221484600F000FADFF8501363
:102E6000A1F8540019F1020918F102083DE6022107
:102E7000484600F0F3F9DFF83813A1F8560019F1CD
:102E8000020918F10208DFF82803B0F85600DFF84D
:102E90001813A1F84E006422C349002000F047FD3A
:102EA00023E60221484600F0D9F9C149A1F85800AB
:102EB00019F1020918F1020817E60221484600F04C
:102EC000CDF9BB49A1F85A0019F1020918F102081D
:102ED0000BE60221484600F0C1F9B549A1F85C00B3
:102EE00019F1020918F10208FFE599F80000B0494C
:102EF00081F85E0019F1010918F10108F5E599F86A
:102F00000000AB4981F85F0019F1010918F10108CF
:102F1000EBE50221484600F0A1F9A549A1F86000BF
:102F200019F102091BF1020BDFE562208046DCE5A6
:102F300062229F494FF4807000F0F9FC9AE09DF8FE
:102F4000000011284DDB9DF80000192849DA994846
:102F50000078002840F08E80002082465046964936
:102F6000B1F8BA1480B288420ED29348514689B261
:102F7000084490F884039049524692B2114481F873
:102F8000A20F1AF1010AE9E79DF8000010388A49FA
:102F900081F8A20F8848B0F8BA0488490880012057
:102FA0008449087003208649087084480088811E7F
:102FB00089B2844800F016F9ADF80400BDF80400A9
:102FC00080B2000A7C497D4A1288114481F8A00F22
:102FD000BDF804007849794A1288114481F8A10F9C
:102FE00048E079480078002844D1002082465046C5
:102FF0007149B1F8BA1480B288420FD26E48514676
:1030000089B2084490F884036B49524692B2114445
:1030100041F2744288541AF1010AE8E79DF8000071
:103020006A4908706448B0F8BA0469490880012008
:103030006549087003206749087065480088811E4B
:1030400089B2624800F0CEF8ADF80400BDF8040083
:1030500080B2000A58495E4A1288114441F2724215
:103060008854BDF804005449594A1288114441F269
:103070007342885405B0BDE8F08F80B54E48B0F873
:10308000B204022815DA4C48B0F8B204012810D175
:1030900000204949A1F8B20401224FF480714E4842
:1030A00002F013FB4448B0F8B62402494B4802F042
:1030B0006EFB01BD5801002060300020C03A0020A6
:1030C0005C01002038B53C4890F8C404012861D167
:1030D0000020394981F8C4043748B0F8BA04811E89
:1030E00089B23F4800F07EF8040033483249B1F815
:1030F000BA14084490F8821309022F482E4AB2F8F5
:10310000BA24104490F8830301430D0020002900E5
:1031100080B289B288423DD140F6B8302649A1F844
:10312000BC04254890F88503132807D12C48FDF7E7
:10313000B7FA05202049A1F8B20427E01E4890F80C
:103140008503152807D12648FEF776F905201A4988
:10315000A1F8B2041AE0184890F88503202815D188
:103160001F48FFF70FFC0020134981F88703002058
:10317000114981F8880300200F4981F88903184814
:10318000FEF75AF905200C49A1F8B20400200A49BB
:10319000A1F8B00431BD0000847A0020E47A002058
:1031A000546C0020746E00202C780020727800206F
:1031B00058790020681300202C00002058130020AC
:1031C00069130020CE0F00203A180020A014002020
:1031D0002A1800203B18002000000240DC7D00205F
:1031E000B003002070B403004FF6FF700A0092B2E3
:1031F000002A03D180B2C04380B22DE00022140027
:103200001A7815005B1C220092B2082A17DA020015
:1032100092B212F001022E00B6B216F0010696EA42
:10322000020F06D080B202004AF2010090EA52007A
:1032300001E080B24008641CADB26D08E3E7491EAE
:103240000A0092B2002AD9D10600320092B2120AC4
:1032500052EA0022100080B270BC704710B4020025
:103260000B00DBB2022B07D11478531C24021A780E
:10327000144320005A1C12E00B00DBB2042B0ED1C9
:103280001478531C24021A7814435B1C24021A7805
:1032900014435B1C24021A78144320005A1C10BCEF
:1032A000704713005A1EDBB2002B04D003780B705A
:1032B000401C491CF5E7704730B40400002013009F
:1032C0005A1EDBB2002B0AD023780D78AB4201D016
:1032D0000123180023780B70641C491CEFE7C0B26F
:1032E00030BC70471CB502226946FE2000F0F6FA99
:1032F000BDF8000041F25E3188420FD16422DFF850
:103300000C14002000F0EAFADFF8000440890028DD
:1033100003D10320DFF8F413488193E064220021F5
:10332000DFF8E80302F03EFD41F25E30ADF8000048
:1033300002226946FE2000F0FAFA0320DFF8CC13DF
:10334000A1F84E0040F20110DFF8C013A1F84C00C4
:103350005020DFF8B813C8824620DFF8B013088386
:103360000320DFF8A81348833220DFF8A0138883F6
:103370000320DFF8981348810520DFF89013888137
:103380000120DFF8881348840020DFF88013888448
:103390000220DFF87813C8840020010089B20929CF
:1033A00009DA411CDFF8642303009BB202EB4302FD
:1033B0001185401CF1E70024200080B204280ADABD
:1033C00014F10900DFF84413220092B201EB42012C
:1033D000C881641CF0E70020CC4948870A20CB490B
:1033E00088870020C949C8870520C849A1F840003E
:1033F0004820C649A1F842000020C449A1F846006F
:103400000020C249A1F848004FF4E260BF49A1F88A
:103410004A000020BD49A1F850000020BB49A1F896
:1034200052000020B949A1F854000120B749A1F881
:1034300056000020B549A1F85A006422B349002083
:1034400000F075FA13BD80B5022269464FF4F070A2
:1034500000F044FABDF8000041F25D3188421CD111
:103460006222AB494FF4807000F038FA0120A8497D
:1034700081F85F001520A64981F85E0040F2863091
:10348000A349A1F858001620A149A1F85A0040F21A
:103490009F309F49A1F85C00BAE0622200219C485D
:1034A00002F080FC41F25D30ADF800000222694676
:1034B0004FF4F07000F03BFA752095498871342084
:1034C0009349C8715B2092490872D3209049487291
:1034D00041F661608E49488170208D490870C7208F
:1034E0008B4948706F208A49887084208849C87049
:1034F0000020874908710220854948717520844958
:1035000081F832003420824981F833005B20804901
:1035100081F83400D3207E4981F8350041F661609E
:103520007B49C88670207A490873C7207849487358
:103530006F207749887384207549C87300207449C7
:103540000874022072494874C020714981F83A0019
:10355000A8206F4981F83B0000206D4981F83C00AC
:103560000A206B4981F83D00FF20694981F83E003F
:10357000FF20674981F83F00FE20654981F840003F
:103580000020634981F84100C020614981F8420070
:10359000A8205F4981F8430000205D4981F844007C
:1035A00001205B4981F845000120594981F8380024
:1035B0000120574981F8390001205549A1F84E00F2
:1035C00001205349A1F8500001205149A1F85400AD
:1035D00003204F49A1F8560001204D4981F85F00B2
:1035E00015204B4981F85E0040F286304849A1F829
:1035F000580016204649A1F85A0040F29F3044492D
:10360000A1F85C00622242494FF4807000F08FF90B
:1036100001BD80B50222694640F2FE6000F05EF90D
:10362000BDF8000041F25D31884207D14FF41072BD
:1036300038494FF4806000F051F92CE04FF41072DB
:103640000021344802F0AEFB0B223349314802F02E
:10365000B3FB0B223149324802F0AEFB01202D4969
:10366000A1F8300204202B49A1F832020120294997
:10367000A1F834024FF4107226494FF4806000F034
:1036800056F941F25D30ADF800000222694640F281
:10369000FE6000F04CF901BD80B5242200212148D4
:1036A00002F080FB702200211F4802F07BFB43F2F6
:1036B000340200211D4802F075FB642200211348EA
:1036C00002F070FB62220021114802F06BFB4FF404
:1036D00026620021164802F065FB4FF408720021B3
:1036E000144802F05FFB60220021134802F05AFBED
:1036F000FFF7F8FDFFF7A7FEFFF78BFF4FF4A0726F
:1037000000210E4802F04EFB01BD00002C78002085
:1037100058790020606300207809030884090308B1
:10372000B0630020947F0020BC7700202C00002094
:1037300060300020546C0020847A00205064002007
:1037400010F007035A490A684FF6FF010A4052EA8F
:10375000032258490A4356490A6070475448006892
:10376000C0F302207047012210F01F018A40524925
:1037700003005BB25B0941F82320704710B40200DC
:1037800052B2002A09D50A014C4B040064B214F06D
:103790000F04234403F8042C04E00A01484B0400FE
:1037A00064B21A5510BC704770B4030013F00704DC
:1037B000D4F10700052801D3042001E0D4F107006B
:1037C000251D072D01D2002500E0E51E012616FA71
:1037D00000F0401E0140A940012010FA05F56D1EC1
:1037E0002A401143080070BC7047BFF34F8F304828
:1037F000016811F4E061334801432D480160BFF3D3
:103800004F8F00BFFDE710B50400601EB0F1807F50
:1038100001D301200EE0601E2B4908600F215FF0EC
:10382000FF30FFF7ABFF0020284908600720284938
:103830000860002010BD10B504002000FFF780FFD5
:1038400010BD2DE9F04104000D0016000027FFF720
:1038500085FF8046320029004046FFF7A5FF0100A2
:10386000200040B2FFF78AFFBDE8F08110B50400E8
:10387000200040B2FFF777FF10BD80B5FFF7B5FF1E
:1038800001BD10B504002000FFF7BDFF10BD0428E6
:1038900006D10F49096851F004010D4A116005E095
:1038A0000B49096831F00401094A116070470000B2
:1038B0000CED00E00000FA0500E100E018ED00E08A
:1038C00000E400E00400FA0514E000E018E000E085
:1038D00010E000E080B500F07CF801BD7CB506008A
:1038E0000C001500002201212F4801F0EEFE0320FC
:1038F0008DF80000300080B2000A8DF80100300021
:103900008DF802004FF47A7303226946274802F0CB
:10391000A0FA4FF47A732A0092B22100234802F0F1
:1039200070FB01220121204801F0CFFE73BD7CB560
:1039300004000D001600002201211B4801F0C5FE05
:1039400006208DF800004FF47A730122694617486B
:1039500002F07FFA01220121134801F0B6FE002295
:103960000121114801F0B1FE02208DF80000200075
:1039700080B2000A8DF8010020008DF802004FF49B
:103980007A7303226946094802F063FA4FF47A73A6
:10399000320092B22900054802F05BFA01220121AF
:1039A000014801F092FE73BD00040240047C002037
:1039B000BFF34F8FDFF8EC0A016811F4E061DFF824
:1039C000E80A0143DFF8DC0A0160BFF34F8F00BF54
:1039D000FDE710B5DFF8D40A90F82100012800F0C7
:1039E0006D820120DFF8C41A81F82100DFF8BC0ADB
:1039F0000089002806D0DFF8B40A0089401EDFF8ED
:103A0000AC1A0881DFF8A40A4089002806D0DFF844
:103A10009C0A4089401EDFF8941A4881DFF88C0A1E
:103A20008089002806D0DFF8840A8089401EDFF8EC
:103A30007C1A8881DFF8740AC089002806D0DFF874
:103A40006C0AC089401EDFF8641AC881DFF85C0A7E
:103A5000008A002806D0DFF8540A008A401EDFF8EA
:103A60004C1A0882DFF8440A408A002806D0DFF8A2
:103A70003C0A408A401EDFF8341A4882DFF82C0ADC
:103A80000089002808D14EF66020DFF8201A08814E
:103A90000120DFF8181A8875DFF8100A408900281D
:103AA00008D14FF47A70DFF8041A48810120DFF85A
:103AB000FC19C875DFF8F4098089002808D14FF493
:103AC000FA70DFF8E81988810120DFF8E01908763C
:103AD000DFF8D809C089002807D16420DFF8CC19A5
:103AE000C8810120DFF8C4194876DFF8C009008AD0
:103AF000002807D13220DFF8B41908820120DFF84E
:103B0000AC198876DFF8A409408A002807D10A207A
:103B1000DFF8981948820120DFF89019C876012053
:103B2000DFF888190877DFF884094068022806D38F
:103B3000DFF878094068401EDFF870194860DFF848
:103B40007809B0F84A00C00527D5DFF86C0990F86D
:103B50005000C00721D5DFF86009B0F90010DFF888
:103B60005809808BDFF85029528912180A204243E5
:103B700091421BDADFF84009B0F85400022815DA48
:103B8000DFF83809806E002810D0DFF83009806E29
:103B9000401EDFF82819886608E0DFF81C098189D3
:103BA0004EF660204143DFF8140981660020DFF8FB
:103BB000FC1881F82100DFF8F4080068401CDFF8E9
:103BC000EC1808600024200080B20A2880F292805D
:103BD000DFF8EC18220092B240F2D240424301EBEF
:103BE0000200B0F8B004002816D0DFF8D418220084
:103BF00092B240F2D240424301EB0200B0F8B0046E
:103C0000411EDFF8BC2823009BB240F2D240434360
:103C100002EB0300A0F8B014DFF8A418220092B25F
:103C200040F2D240424301EB0200B0F8BC0400284D
:103C300016D0DFF88C18220092B240F2D2404243F4
:103C400001EB0200B0F8BC04411EDFF87428230029
:103C50009BB240F2D240434302EB0300A0F8BC14F5
:103C6000DFF85C18220092B240F2D240424301EBEE
:103C70000200B0F8B204022816DBDFF84418220074
:103C800092B240F2D240424301EB0200B0F8B204DB
:103C9000411EDFF82C2823009BB240F2D240434360
:103CA00002EB0300A0F8B214DFF81418220092B25D
:103CB00040F2D240424301EB0200B0F8C2040228B5
:103CC00016DBDFF8FC17220092B240F2D2404243EA
:103CD00001EB0200B0F8C204411EDFF8E427230024
:103CE0009BB240F2D240434302EB0300A0F8C2145F
:103CF000641C68E7DFF8C807B0F8BC04002817D0D8
:103D0000DFF8A80700686421B0FBF1F201FB1200A4
:103D1000332806D300224021DFF8A80701F0D5FCA4
:103D20001EE001224021DFF89C0701F0CEFC17E0E5
:103D3000DFF8780700684FF4FA71B0FBF1F201FB8D
:103D40001200FB2806D300224021DFF8780701F09B
:103D5000BCFC05E001224021DFF8680701F0B5FC5A
:103D6000DFF85C07B0F8600E002817D0DFF83C07DA
:103D700000686421B0FBF1F201FB1200332806D386
:103D800000221021DFF8400701F09FFC22E0012211
:103D90001021DFF8340701F098FC1BE0DFF8200762
:103DA00090F86D0E00280FD0DFF8140790F86D0E14
:103DB000401EDFF80C1781F86D0E00221021DFF88D
:103DC000080701F082FC05E001221021DFF8F80667
:103DD00001F07BFCDFF8F4060088002819D0DFF83A
:103DE000CC0600686421B0FBF1F201FB120033281D
:103DF00007D300224FF48061DFF8D40601F065FCA0
:103E000022E001224FF48061DFF8C40601F05DFC7E
:103E10001AE0DFF8C006007800280ED0DFF8B406FC
:103E20000078401EDFF8AC16087000224FF4806165
:103E3000DFF89C0601F049FC06E001224FF48061A6
:103E4000DFF88C0601F041FCDFF88C0600880028C2
:103E500019D0DFF8580600686421B0FBF1F201FBCD
:103E60001200332807D300224FF40071DFF86006F8
:103E700001F02BFC22E001224FF40071DFF8500624
:103E800001F023FC1AE0DFF85406007800280ED079
:103E9000DFF848060078401EDFF840160870002260
:103EA0004FF40071DFF8280601F00FFC06E0012254
:103EB0004FF40071DFF8180601F007FC10BD10B5D3
:103EC00004002068DFF81816884206D100224FF45B
:103ED0008071DFF8F00501F0F8FB2068DFF80416C8
:103EE000884205D100220821DFF8DC0501F0EDFB56
:103EF0002068DFF8F41588420DD100228021DFF818
:103F0000C80501F0E2FBDFF8E405007810F0FE00E0
:103F1000DFF8D81508702068DFF8D415884206D17C
:103F200000224FF48071DFF8A80501F0CEFB206875
:103F3000DFF8C015884205D100220821DFF884058A
:103F400001F0C3FB10BD80B50022DFF8AC15DFF82F
:103F5000AC0502F032FC0022DFF8A415DFF89C0566
:103F600002F079FB01BD80B5DFF84C05B0F85C00CC
:103F700080B2000ADFF88015C870DFF83C05B0F8A1
:103F80005C00DFF874150870DFF82C05B0F85E00EF
:103F900080B2000ADFF860154870DFF81C05B0F841
:103FA0005E00DFF854158870DFF80C05B0F860008B
:103FB00080B2000ADFF848150870DFF8FC04B0F89A
:103FC0006000DFF83C154870DFF8EC04B0F86200E0
:103FD000DFF82C1588700022DFF81C15DFF81C05AF
:103FE00002F06DFB0022DFF81815DFF8100502F073
:103FF000A5FA01BDDFF8C004C08F002819D002283F
:104000002DD025D3042838D030D3062844D03BD334
:10401000082851D048D30A285ED055D30C286BD03D
:1040200062D30E2878D06FD3102800F085807BD320
:104030008AE0DFF8D014DFF88004028DA620424326
:1040400001EB020030F8A60CDFF86C14088081E068
:10405000DFF8B4040088DFF8601408807AE0DFF845
:10406000A8044088DFF85014088073E0DFF8980453
:10407000408CDFF8441408806CE0DFF88C04808CFE
:10408000DFF83414088065E0DFF87C04B0F8440001
:10409000DFF8241408805DE0DFF86C04B0F8460017
:1040A000DFF81414088055E0DFF85C04B0F866000F
:1040B000DFF8041408804DE0DFF84C04B0F8680025
:1040C000DFF8F413088045E0DFF83C04B0F888001E
:1040D000DFF8E41308803DE0DFF82C04B0F88A0034
:1040E000DFF8D413088035E0DFF81C04B0F8AA002C
:1040F000DFF8C41308802DE0DFF80C04B0F8AC0042
:10410000DFF8B413088025E0DFF8FC03B0F8CC003A
:10411000DFF8A41308801DE0DFF8EC03B0F8CE0050
:10412000DFF89413088015E0DFF8DC03B0F8EE0048
:10413000DFF8841308800DE0DFF8CC03B0F8F0005E
:10414000DFF87413088005E0DFF8B8030088DFF8B3
:1041500068130880704780B5DFF85C03B0F9000091
:1041600047F6FF71884200F09480DFF84C03B0F905
:1041700000004FF6FF71884200F08B80DFF83803B3
:10418000B0F84A00C00540F18080DFF82C0390F8B9
:104190005000C00779D5DFF82003B0F8540000289C
:1041A00008D0022829D013D3042853D048D3052897
:1041B00061D06EE00120C049A1F85400BE48B0F8BB
:1041C00052104FF6FE700140BB48A0F8521060E05C
:1041D000B948B0F90010B848808BB74A5289121814
:1041E0000A204243914207DBB448806E002803D185
:1041F0000220B149A1F854004BE0AF48B0F90010DB
:10420000AD48828B0A204243914218DAAA48B0F89E
:10421000520050F00100A849A1F85200A648B0F899
:104220004A00800507D5A448B0F8520050F00200BB
:10423000A149A1F8520003209F49A1F8540028E0A9
:104240009D4890F85200800703D404209A49A1F8B1
:1042500054001EE09848B0F900109748808B964AA9
:10426000528912180A204243914203DB05209249E9
:10427000A1F854000DE0904890F85200C00703D414
:1042800002208D49A1F8540003E000208A49A1F8DA
:104290005400894890F84A00C00631D48648B0F8E6
:1042A0004800002809D000208349A1F848000222D4
:1042B000DFF8FC1B4820FFF73AFB7F48B0F84600C8
:1042C000002809D000207C49A1F846000222DFF82E
:1042D000E41B4620FFF72BFB774890F8520040077D
:1042E0000ED57548B0F852104FF6FB700140724879
:1042F000A0F852100222DFF8AC1D5220FFF717FB86
:1043000001BDDFF8FC0D007A01283AD00120DFF86A
:10431000F01D0872DFF8D80B0068C04310F470403D
:10432000DFF8DC1DC880DFF8D81DC988DFF8D02D84
:104330009288914217D1DFF8C81D0988322916DA10
:10434000DFF8BC1D0988491CDFF8B42D1180DFF8A7
:10435000B01D098832290AD1DFF8A41DC988DFF809
:10436000A02D518003E00021DFF8942D1180DFF8AB
:10437000901DC988DFF8882D91800021DFF8802DFD
:1043800011727047F8B5040000262100DFF8BC0B5D
:1043900003F0DCFC07003800C0B2002838D1DFF899
:1043A000B01BDFF8A80B03F046FD07003800C0B2D1
:1043B000002804D1DFF8980B807D002804D1DFF8B5
:1043C0008C0B03F01DFD23E0DFF8880D0500DFF8FE
:1043D000800B007AC006E2D4032235A1DFF8F80B87
:1043E00003F05EFD002807D0032232A1DFF8E80BBE
:1043F00003F056FD0028D2D10622DFF8401CDFF87A
:10440000540D03F04DFD0028C9D1FFF7D1FAC6E7DE
:104410003800C0B2F2BD70B588B0DFF8240C007867
:104420000A2838D1DFF8180C90F81E03012832D181
:10443000DFF8780D808A4FF6FF71884206D0DFF8EA
:104440006C0D808A401CDFF8641D8882DFF85C0DEB
:10445000808AB0F57A7F22D1002003F046FD002249
:10446000DFF8441CDFF8440C03F029FC202400256D
:104470006E462A002100300003F090FD30208DF8B8
:1044800000003A208DF8010000208DF802006846F7
:10449000FFF778FF03E00020DFF8101D888208B0E6
:1044A00070BD00000CED00E00400FA05947F0020D0
:1044B00048455800686578002C780020BC770020BB
:1044C0002C00002000000240000C024030180020A8
:1044D000000802403D1800205E1300206B130020EE
:1044E000001001400044004000480040CA80002005
:1044F000004C004000500040BC800020D87F0020CD
:10450000F87F002060300020546C00202DE9F04F2F
:1045100099B003F077FD24250026DFF8904C320097
:104520002900200003F03AFD00240A2C0BD240F2AF
:10453000D2450026DFF8CC7B32002900380003F09A
:104540002DFD641CF1E770200C9000200B90DFF82B
:10455000605C0B9A0C99280003F020FD0A200A9059
:1045600000200990DFF8985B099A0A99280003F067
:1045700015FD0A20089000200790DFF8DC5B079A01
:104580000899280003F00AFD642006900020059099
:10459000DFF8205C059A0699280003F0FFFC6420F0
:1045A000049000200390DFF8B45B039A049928007C
:1045B00003F0F4FC6420029000200190DFF8F85B27
:1045C000019A0299280003F0E9FC62260027DFF82F
:1045D000EC5B3A003100280003F0E0FC5FF0620879
:1045E0005FF00009DFF8D85B4A464146280003F037
:1045F000D5FC5FF0620A5FF0000BDFF8C85B5A463B
:104600005146280003F0CAFC0025102D0AD2A6242A
:104610000026DFF8B47B32002100380003F0BEFC36
:104620006D1CF2E70024102C0AD2A6250026DFF824
:104630009C7B32002900380003F0B0FC641CF2E7D8
:104640000025102D0AD2A6240026DFF8847B320034
:104650002100380003F0A2FC6D1CF2E70024102CAE
:104660000AD248250026DFF86C7B3200290038008A
:1046700003F094FC641CF2E70025102D0AD24824B4
:104680000026DFF8547B32002100380003F086FC5E
:104690006D1CF2E70024102C0AD248250026DFF812
:1046A0003C7B32002900380003F078FC641CF2E700
:1046B0000025102D0AD206240026DFF8247B3200C4
:1046C0002100380003F06AFC6D1CF2E70024102C76
:1046D0000AD206250026DFF80C7B320029003800BC
:1046E00003F05CFC641CF2E70025102D0AD20624BE
:1046F0000026DFF8F47A32002100380003F04EFC87
:104700006D1CF2E70024102C0AD222250026DFF8C7
:10471000DC7A32002900380003F040FC641CF2E728
:104720000025102D0AD222240026DFF8C47A320098
:104730002100380003F032FC6D1CF2E70024102C3D
:104740000AD222250026DFF8AC7A32002900380090
:1047500003F024FC641CF2E72A2018900020179034
:10476000DFF8945A179A1899280003F017FC2A20AA
:10477000169000201590DFF8845A159A1699280093
:1047800003F00CFC2A20149000201390DFF8585CF2
:10479000139A1499280003F001FC0A2012900020BB
:1047A0001190DFF8485C119A1299280003F0F6FB8B
:1047B0000A20109000200F90DFF8345C0F9A1099B7
:1047C000280003F0EBFB0A200E9000200D90DFF88C
:1047D000245C0D9A0E99280003F0E0FB14200C9045
:1047E00000200B90DFF8105C0B9A0C99280003F066
:1047F000D5FB14200A9000200990DFF8005C099A8C
:104800000A99280003F0CAFB1420089000200790A2
:10481000DFF8EC5B079A0899280003F0BFFB06203D
:10482000069000200590DFF8DC5B059A06992800C9
:1048300003F0B4FB0620049000200390DFF8C85B6F
:10484000039A0499280003F0A9FB06200290002097
:104850000190DFF8B85B019A0299280003F09EFBF3
:104860004FF410750026DFF8A87B320029003800CD
:1048700003F094FB4FF410775FF00008DFF8949B8F
:1048800042463900484603F089FB4FF410795FF047
:10489000000ADFF884BB52464946584603F07EFBC7
:1048A00000F084FA00F0ACFC00F002FC03F0CAFB5C
:1048B00000F02AFC00F054FC00F090FB00F0C2FB7A
:1048C00000F048FB00F016FB00F0F6FA00224FF46F
:1048D0008071DFF8480B00F0F8FE00220821DFF8B5
:1048E000400B00F0F2FE00228021DFF8340B00F0D4
:1048F000ECFE00224FF48071DFF8280B00F0E5FE9B
:1049000000220821DFF8140B00F0DFFEFEF7C4FEE2
:10491000DFF8140B0068C06850F02000DFF8081BB7
:104920000968C860DFF8040B0068C06850F0200018
:10493000DFF8F81A0968C860DFF8F40A0068C06890
:1049400050F02000DFF8E81A0968C860DFF8E40AD0
:104950000068C06850F02000DFF8D81A0968C86005
:10496000DFF8D40A0068C06850F02000DFF8C81AE9
:104970000968C8606420DFF8341848604FF6FF709B
:10498000DFF82C1888804FF49670DFF87817A1F8BC
:10499000560E4FF49670DFF8A41A08804FF4967004
:1049A000DFF89C1A0880FF20DFF8981A08700020B2
:1049B000DFF8001848800020DFF8F817C8830020CF
:1049C000DFF8F017088403F04CFBFEF77BFBFEF7E3
:1049D00054FB03F038FC03F0B0FC04F0F1F804F0F1
:1049E00036FA04F097FD04F0ACFEDFF8C007007F54
:1049F000012807D10020DFF8B4170877FFF781FC02
:104A0000FFF709FDDFF8A407C07E012840F0C4804D
:104A10000020DFF89817C876FFF7ECFAFFF79BFB4A
:104A2000DFF89007B0F84E008DF80200DFF8840739
:104A3000B0F84C008DF80100DFF87807B0F84C00B2
:104A400080B2000A8DF8000000219DF8020081422A
:104A50001BD2DFF85C0700EB4100C088002809D0BA
:104A6000DFF85007408801228A401043DFF84427CE
:104A7000508008E0DFF83C07408801228A409043DC
:104A8000DFF830275080491CDFE700229DF8010045
:104A900082421BD2DFF8180700EB4200C08C0028CE
:104AA00009D0DFF81007C08B012191400843DFF8DF
:104AB0000417C88308E0DFF8FC06C08B0121914091
:104AC0008843DFF8F016C883521CDFE700249DF806
:104AD000000084421CD2DFF8D80600EB4400B0F896
:104AE0004600002809D0DFF8CC06008C0121A14047
:104AF0000843DFF8C016088408E0DFF8B806008C29
:104B00000121A1408843DFF8AC160884641CDEE76D
:104B1000DFF8A00690F82000C00709D447F6FF7020
:104B2000DFF8C816088047F6FF70DFF8C016488027
:104B3000DFF8800690F82000800709D447F6FF7060
:104B4000DFF8A816488447F6FF70DFF8A0168884BF
:104B5000DFF8600690F8200040070BD447F6FF709E
:104B6000DFF88816A1F8440047F6FF70DFF87C16DE
:104B7000A1F84600DFF83C0690F8200000070BD4AF
:104B800047F6FF70DFF86416A1F8660047F6FF707D
:104B9000DFF85816A1F86800DFF81006807E0128BB
:104BA00005D10020DFF804168876FFF7CCF9DFF88E
:104BB000FC05407E012809D10020DFF8F015487679
:104BC0004AF6AA20DFF8801809680860DFF8DC05DB
:104BD000007E012814D10020DFF8D0150876DFF818
:104BE000CC0590F82200002805D10120DFF8BC1583
:104BF00081F8220004E00020DFF8B01581F82200DF
:104C0000DFF8B005B0F84A00000467D5DFF89C056E
:104C1000C07D01287FF4D7AE0020DFF89015C8755D
:104C2000DFF89005B0F8420000283FF4CCAEDFF882
:104C3000840590F84A00C0067FF5C5AEDFF874051C
:104C400090F85000C0077FF5BEAEDFF8680590F819
:104C5000520010F00C0F7FF4B6AEDFF85805B0F834
:104C60004800401CDFF84C15A1F84800DFF8440567
:104C7000B0F848003C282BDB0020DFF83815A1F8FD
:104C80004800DFF83005B0F84600401CDFF8241576
:104C9000A1F84600DFF81C05B0F84600DFF814154F
:104CA000B1F8421088420ED30020DFF80815A1F8B1
:104CB0004600DFF80005B0F8520050F00400DFF8BD
:104CC000F414A1F8520002227A494620FEF72FFE82
:104CD000022277494820FEF72AFE74E6DFF8CC046A
:104CE000807D01287FF46FAE0020DFF8C014887546
:104CF000DFF8C004B0F8420000283FF464AEDFF8EB
:104D0000B40490F84A00C0067FF55DAEDFF8A40455
:104D100090F85000C0077FF556AEDFF8980490F881
:104D2000520010F00C0F7FF44EAEDFF88804B0F89C
:104D30004800401CDFF87C14A1F84800DFF8740438
:104D4000B0F848003C282BDB0020DFF86814A1F8FD
:104D50004800DFF86004B0F84600401CDFF8541447
:104D6000A1F84600DFF84C04B0F84600DFF8441420
:104D7000B1F8421088420ED30020DFF83814A1F8B1
:104D80004600DFF83004B0F8520050F00400DFF8BD
:104D90002414A1F85200022246494620FEF7C7FD1E
:104DA000022243494820FEF7C2FD0CE600B5A9B037
:104DB00000200090DFF89406006850F08050DFF883
:104DC0008C160860DFF88406006810F080500090B0
:104DD000009800200090DFF87806006850F440400A
:104DE000DFF86C160860DFF86806006810F44040D1
:104DF00000900098092006905FF480300790012011
:104E00000B9002200C905FF480000D9019200E9002
:104E1000C0200F90022010900420119002201290C8
:104E200006A804F02BFF002805D04FF46071DFF8CE
:104E3000240600F02BFB0F2001900220029000209E
:104E400003904FF48050049000200590032101A8A6
:104E500005F00EF9002805D040F28E31DFF8F40598
:104E600000F014FB282013904FF400701C900020D9
:104E70001F9013A804F0EEFC002805D040F29631F4
:104E8000DFF8D00500F002FB05F097F94FF47A71D6
:104E9000B0FBF1F0FEF7F5FC0420FEF7F8FC002271
:104EA00000215FF0FF30FEF7CCFC29B000BD000010
:104EB000747800207278002080B5DFF89C05DFF858
:104EC000881508600620DFF88015486040F27120E0
:104ED000DFF874158860DFF8700505F093F9002895
:104EE00005D040F2C531DFF86C0500F0CFFA01BD06
:104EF0001010024080B5DFF86405DFF86415086023
:104F00000020DFF85C1548607F20DFF854158860CA
:104F1000FF20DFF84C15C8600020DFF84415086159
:104F20000020DFF83C1548610020DFF83415886167
:104F3000DFF82C0501F09CFA002805D040F2E131A1
:104F4000DFF8100500F0A2FA01BD0000DC7E0020B1
:104F5000A476002080B5DFF80C05DFF80C1508609A
:104F60004FF48270DFF8001548600020DFF8F81475
:104F700088600020DFF8F014C8600020DFF8E81433
:104F800008610020DFF8E01448614FF40070DFF89A
:104F9000D81488611020DFF8D014C8610020DFF831
:104FA000C81408620020DFF8C01448620020DFF84F
:104FB000B81488620A20DFF8B014C862DFF8A804C9
:104FC00000F000FF002805D04FF47F71DFF8840463
:104FD00000F05CFA01BD0000B676002080B5DFF875
:104FE0008C04DFF8501408604FF41650DFF84414B6
:104FF00048600020DFF83C1488600020DFF834149B
:10500000C8600020DFF82C1408610C20DFF824149D
:1050100048610020DFF81C1488610020DFF81414B8
:10502000C861DFF8100400F077FB002805D040F2DB
:105030000F41DFF8200400F029FA01BD98090308A8
:10504000005D002080B5DFF82804DFF8EC1308606D
:105050004FF41650DFF8E01348600020DFF8D81353
:1050600088600020DFF8D013C8600020DFF8C81384
:1050700008610C20DFF8C01348610020DFF8B81386
:1050800088610020DFF8B013C861DFF8AC0300F0DE
:1050900043FB002805D040F22241DFF8B80300F0BE
:1050A000F5F901BD7E780020B4800020206A002040
:1050B00080B5DFF8C003DFF8701308604FF41640C6
:1050C000DFF8641348600020D74988600020D64983
:1050D000C8600020D44908610C20D34948610020F1
:1050E000D14988610020D049C861CF4800F014FB45
:1050F000002804D040F28141D64800F0C7F901BD34
:10510000608000202C00002080B5DB48C749086083
:105110004FF41650C54948600020C44988600020FB
:10512000C249C8600020C14908610C20BF494861DC
:105130000020BE4988610020BC49C861BB4800F01E
:10514000EBFA002804D040F29441C24800F09EF9E6
:1051500001BD0000BA7600206C800020907800200D
:1051600080B5C648B24908604FF49640B0494860DF
:105170000020AF4988600020AD49C8600020AC49DC
:1051800008610C20AA4948610020A94988610020D3
:10519000A749C861A64800F0BFFA002804D040F231
:1051A000A741AC4800F072F901BD0000947F0020D7
:1051B000BC7700202C780020F4780020587900205B
:1051C000BC790020207A002060300020C03A002006
:1051D00020450020804F00200054002080580020EF
:1051E000847A0020E47A0020447B0020546C002064
:1051F000746E002094700020107F00203C7F0020FF
:1052000080B586B0002005909D48006850F01000E1
:105210009B4908609A48006810F0100005900598B6
:10522000002005909648006850F08000944908607E
:105230009348006810F080000590059800200590C4
:105240008F48006850F001008D4908608C48006864
:1052500010F001000590059800200590884800682E
:1052600050F00400864908608548006810F004008A
:1052700005900598002005908148006850F00200D4
:105280007F4908607E48006810F00200059005988C
:10529000002005907A48006850F0080078490860BE
:1052A0007748006810F008000590059800224FF438
:1052B0004361744800F009FA002248F20811574887
:1052C00000F003FA01224021544800F0FEF90022C8
:1052D00001216D4800F0F9F900224FF48071514826
:1052E00000F0F3F901224FF4C0614E4800F0EDF9EF
:1052F000002288214A4800F0E8F90122102148489C
:1053000000F0E3F94FF44360009001200190002089
:1053100002900020039069465A4800F0CDF848F208
:1053200008100090012001900020029000200390BE
:1053300069463A4800F0C0F84020009011200190E2
:1053400000200290002003906946344800F0B4F831
:105350000120009001200190002002900020039085
:105360006946494800F0A8F84FF4704000900020CA
:105370000190012002906946424800F09DF84FF4E8
:105380008070009001200190002002900020039086
:105390006946244800F090F84FF4C0600090112056
:1053A0000190002002900020039069461D4800F003
:1053B00083F88820009001200190002002900020B6
:1053C00003906946164800F077F8102000901120ED
:1053D000019000200290002003906946104800F0E0
:1053E0006BF807B000BD0000687F002078800020C7
:1053F00084800020908000200C80002020800020ED
:10540000348000209C800020A4800020AC800020FC
:1054100060630020A0650020E067002000000240DB
:10542000000C024000080240DC7D00201C7E0020B1
:105430005C7E00205C7C00209C7C002054130020BB
:1054400026180020391800205480002040380240DF
:105450000070004020080308003000400028004091
:10546000D87F0020003C0040047C0020004C00401D
:10547000005000400010014000440040004800403F
:10548000303802400010024000040240FEE70EE007
:1054900002684368024408305FEAC37C44BF4B445F
:1054A0005B1E52F804CB43F804CB091FF9D150F826
:1054B000041B0029ECD17047F8B400230024002518
:1054C0000026102E80F0FF800122B24013000A68EF
:1054D0001A4014009C4240F0F4804A68022A02D02C
:1054E0004A68122A1ED13200D20800EB8202176AE3
:1054F0005FF00F0C16F00702D2B292001CFA02FC09
:1055000037EA0C07D1F810C016F00702D2B29200A9
:105510001CFA02FC5CEA07073D003200D20800EBEF
:105520008202156207685FF0030C3200D2B25200AB
:105530001CFA02FC37EA0C0791F804C01CF0030CBB
:105540003200D2B252001CFA02FC5CEA0707076084
:105550004A68012A08D04A68022A05D04A68112AF6
:1055600002D04A68122A24D185685FF0030C320009
:10557000D2B252001CFA02FC35EA0C05D1F80CC07C
:105580003200D2B252001CFA02FC5CEA05058560CA
:1055900042685FF0010C1CFA06FC32EA0C02D1F8FA
:1055A00004C0CCF3001C1CFA06FC5CEA02021700E3
:1055B0004760C5685FF0030C3200D2B252001CFA9B
:1055C00002FC35EA0C05D1F808C03200D2B2520014
:1055D0001CFA02FC5CEA0505C5604A68D20070D579
:1055E000002200923F4A126852F480423D4F3A60D6
:1055F0003C4A126812F480420092009A3A4A3700FC
:10560000BF0852F827705FF00F0C16F00302D2B2F9
:1056100092001CFA02FC37EA0C07344A904201D18E
:1056200000251EE0324A904201D1012519E0314A9D
:10563000904201D1022514E02F4A904201D1032566
:105640000FE02E4A904201D104250AE02C4A9042F4
:1056500001D1052505E02B4A904201D1062500E045
:105660000725EDB216F00302D2B2920095402F4307
:105670001D4A3500AD0842F82570234A1268A2433E
:105680004D68ED0300D522431F4D2A601F4D2D6844
:10569000A5434F68BF0300D525431C4A15601C4A2B
:1056A0001268A2434F68FF0200D52243184D2A60BA
:1056B000184D2D68A5434F68BF0200D52543154AF4
:1056C0001560761CFDE6F1BC70471300DBB2002BC1
:1056D00003D00B009BB2836103E00B009BB21B0461
:1056E000836170474438024008380140000002409E
:1056F0000004024000080240000C0240001002407A
:105700000014024000180240003C0140043C0140EB
:10571000083C01400C3C014010B50400002C01D1B4
:10572000012033E0A0690028FFD194F83900002857
:1057300005D1002084F83800200004F010FE242059
:1057400084F839002068C06830F400502168C860CF
:10575000200000F09BF92068006930F49040216837
:1057600008612068406930F02A002168486120689B
:10577000C06850F400502168C8600020E063202019
:1057800084F83900202084F83A00002010BD10B4BD
:10579000030093F83900202823D1002903D01000FA
:1057A00080B2002801D101201CE093F838000128C4
:1057B00001D1022016E0012083F8380019629A8492
:1057C000DA840020D863212083F83900002083F890
:1057D00038001868C06850F080001C68E060002045
:1057E00000E0022010BC70472DE9F8430600306845
:1057F00007683068D0F80C803068D0F8149000202A
:10580000002517F00F04002C08D1B80606D55FEA72
:10581000886003D5300000F0E8F880E0002C6CD000
:105820005FEAC97002D418F4907F66D03800C007D0
:1058300006D55FEAC85003D5F06B50F00100F06365
:10584000780706D54846C00703D5F06B50F0020034
:10585000F063B80706D54846C00703D5F06B50F093
:105860000400F063380706D54846C00703D5F06B3F
:1058700050F00800F063F06B00283DD0B80605D565
:105880005FEA886002D5300000F0AFF83068406908
:10589000800910F001000500F06B000701D4002D15
:1058A00025D0300000F03DF83068406940061AD538
:1058B0003068406930F0400031684861706B002802
:1058C0000DD00FF28100716B0865706B04F04EFF14
:1058D000002811D0706B716B096D88470CE03000A7
:1058E00004F058FF08E0300004F054FF04E03000FA
:1058F00004F050FF0020F06311E0380606D55FEA9F
:10590000086003D5300000F029F808E0780606D5D5
:105910005FEA486003D5300000F057F8FFE7BDE8C4
:10592000F1830168C96831F490710268D16001683F
:1059300049694908490002685161202180F83A10FC
:105940007047000038B50400A56B0020E8850020F2
:10595000E884280004F01EFF31BD0000010091F82A
:10596000390021282FD18868B0F5805F11D1086AED
:1059700002001088C005C00D0B6858600869002837
:1059800003D1086A801C086209E0086A401C0862AA
:1059900005E0086A431C0B6200780B685860C88CED
:1059A000401EC88480B200280BD10868C06830F05F
:1059B00080000B68D8600868C06850F040000B6831
:1059C000D860002000E00220704710B50400206875
:1059D000C06830F040002168C860202084F8390099
:1059E0002000FEF76CFA002010BD38B5040094F8D2
:1059F0003A00222848D1A068B0F5805F16D1A06A8D
:105A000005002069002808D120684068C005C00D45
:105A10002880A06A801CA0621AE02068406800F01C
:105A2000FF002880A06A401CA06211E020690028C5
:105A300006D1A06A411CA16221684968017007E093
:105A4000A06A411CA1622168496811F07F010170C0
:105A5000E08D401EE08580B2002813D12068C06828
:105A600030F490702168C8602068406940084000A8
:105A700021684861202084F83A00200004F08BFE61
:105A8000002002E0002000E0022032BD2DE9F843B2
:105A9000040000212068026932F44052E0680243A9
:105AA000206802612068C368BB480340A0680343C4
:105AB0002069034360690343E06903432068C360CE
:105AC0002068456935F44075A06905432068456143
:105AD000E069B0F5004F40F0B0802068AF498842DF
